{
  "address": "0x06b3244b086cecC40F1e5A826f736Ded68068a0F",
  "abi": [
    {
      "inputs": [
        {
          "internalType": "string",
          "name": "_name",
          "type": "string"
        },
        {
          "internalType": "string",
          "name": "_symbol",
          "type": "string"
        },
        {
          "internalType": "string",
          "name": "_baseURI",
          "type": "string"
        },
        {
          "internalType": "uint256",
          "name": "_maxSupply",
          "type": "uint256"
        }
      ],
      "stateMutability": "nonpayable",
      "type": "constructor"
    },
    {
      "inputs": [],
      "name": "MaxSupplyExceeded",
      "type": "error"
    },
    {
      "inputs": [],
      "name": "NotEnoughMatic",
      "type": "error"
    },
    {
      "inputs": [],
      "name": "claimed",
      "type": "error"
    },
    {
      "anonymous": false,
      "inputs": [
        {
          "indexed": true,
          "internalType": "address",
          "name": "owner",
          "type": "address"
        },
        {
          "indexed": true,
          "internalType": "address",
          "name": "approved",
          "type": "address"
        },
        {
          "indexed": true,
          "internalType": "uint256",
          "name": "tokenId",
          "type": "uint256"
        }
      ],
      "name": "Approval",
      "type": "event"
    },
    {
      "anonymous": false,
      "inputs": [
        {
          "indexed": true,
          "internalType": "address",
          "name": "owner",
          "type": "address"
        },
        {
          "indexed": true,
          "internalType": "address",
          "name": "operator",
          "type": "address"
        },
        {
          "indexed": false,
          "internalType": "bool",
          "name": "approved",
          "type": "bool"
        }
      ],
      "name": "ApprovalForAll",
      "type": "event"
    },
    {
      "anonymous": false,
      "inputs": [
        {
          "indexed": true,
          "internalType": "address",
          "name": "previousOwner",
          "type": "address"
        },
        {
          "indexed": true,
          "internalType": "address",
          "name": "newOwner",
          "type": "address"
        }
      ],
      "name": "OwnershipTransferred",
      "type": "event"
    },
    {
      "anonymous": false,
      "inputs": [
        {
          "indexed": true,
          "internalType": "address",
          "name": "from",
          "type": "address"
        },
        {
          "indexed": true,
          "internalType": "address",
          "name": "to",
          "type": "address"
        },
        {
          "indexed": true,
          "internalType": "uint256",
          "name": "tokenId",
          "type": "uint256"
        }
      ],
      "name": "Transfer",
      "type": "event"
    },
    {
      "inputs": [],
      "name": "Withdraw",
      "outputs": [],
      "stateMutability": "nonpayable",
      "type": "function"
    },
    {
      "inputs": [
        {
          "internalType": "address",
          "name": "to",
          "type": "address"
        },
        {
          "internalType": "uint256",
          "name": "tokenId",
          "type": "uint256"
        }
      ],
      "name": "approve",
      "outputs": [],
      "stateMutability": "nonpayable",
      "type": "function"
    },
    {
      "inputs": [
        {
          "internalType": "address",
          "name": "owner",
          "type": "address"
        }
      ],
      "name": "balanceOf",
      "outputs": [
        {
          "internalType": "uint256",
          "name": "",
          "type": "uint256"
        }
      ],
      "stateMutability": "view",
      "type": "function"
    },
    {
      "inputs": [
        {
          "internalType": "uint256",
          "name": "_tokenIdClaim",
          "type": "uint256"
        }
      ],
      "name": "claimHealthCheck",
      "outputs": [],
      "stateMutability": "nonpayable",
      "type": "function"
    },
    {
      "inputs": [
        {
          "internalType": "uint256",
          "name": "tokenId",
          "type": "uint256"
        }
      ],
      "name": "getApproved",
      "outputs": [
        {
          "internalType": "address",
          "name": "",
          "type": "address"
        }
      ],
      "stateMutability": "view",
      "type": "function"
    },
    {
      "inputs": [],
      "name": "getMaxSupply",
      "outputs": [
        {
          "internalType": "uint256",
          "name": "",
          "type": "uint256"
        }
      ],
      "stateMutability": "view",
      "type": "function"
    },
    {
      "inputs": [],
      "name": "getOwner",
      "outputs": [
        {
          "internalType": "address",
          "name": "",
          "type": "address"
        }
      ],
      "stateMutability": "view",
      "type": "function"
    },
    {
      "inputs": [],
      "name": "getPrice",
      "outputs": [
        {
          "internalType": "uint256",
          "name": "",
          "type": "uint256"
        }
      ],
      "stateMutability": "pure",
      "type": "function"
    },
    {
      "inputs": [],
      "name": "i_baseTokenURI",
      "outputs": [
        {
          "internalType": "string",
          "name": "",
          "type": "string"
        }
      ],
      "stateMutability": "view",
      "type": "function"
    },
    {
      "inputs": [
        {
          "internalType": "address",
          "name": "owner",
          "type": "address"
        },
        {
          "internalType": "address",
          "name": "operator",
          "type": "address"
        }
      ],
      "name": "isApprovedForAll",
      "outputs": [
        {
          "internalType": "bool",
          "name": "",
          "type": "bool"
        }
      ],
      "stateMutability": "view",
      "type": "function"
    },
    {
      "inputs": [],
      "name": "mint",
      "outputs": [],
      "stateMutability": "payable",
      "type": "function"
    },
    {
      "inputs": [],
      "name": "name",
      "outputs": [
        {
          "internalType": "string",
          "name": "",
          "type": "string"
        }
      ],
      "stateMutability": "view",
      "type": "function"
    },
    {
      "inputs": [],
      "name": "owner",
      "outputs": [
        {
          "internalType": "address",
          "name": "",
          "type": "address"
        }
      ],
      "stateMutability": "view",
      "type": "function"
    },
    {
      "inputs": [
        {
          "internalType": "uint256",
          "name": "tokenId",
          "type": "uint256"
        }
      ],
      "name": "ownerOf",
      "outputs": [
        {
          "internalType": "address",
          "name": "",
          "type": "address"
        }
      ],
      "stateMutability": "view",
      "type": "function"
    },
    {
      "inputs": [],
      "name": "renounceOwnership",
      "outputs": [],
      "stateMutability": "nonpayable",
      "type": "function"
    },
    {
      "inputs": [
        {
          "internalType": "address",
          "name": "from",
          "type": "address"
        },
        {
          "internalType": "address",
          "name": "to",
          "type": "address"
        },
        {
          "internalType": "uint256",
          "name": "tokenId",
          "type": "uint256"
        }
      ],
      "name": "safeTransferFrom",
      "outputs": [],
      "stateMutability": "nonpayable",
      "type": "function"
    },
    {
      "inputs": [
        {
          "internalType": "address",
          "name": "from",
          "type": "address"
        },
        {
          "internalType": "address",
          "name": "to",
          "type": "address"
        },
        {
          "internalType": "uint256",
          "name": "tokenId",
          "type": "uint256"
        },
        {
          "internalType": "bytes",
          "name": "data",
          "type": "bytes"
        }
      ],
      "name": "safeTransferFrom",
      "outputs": [],
      "stateMutability": "nonpayable",
      "type": "function"
    },
    {
      "inputs": [
        {
          "internalType": "address",
          "name": "operator",
          "type": "address"
        },
        {
          "internalType": "bool",
          "name": "approved",
          "type": "bool"
        }
      ],
      "name": "setApprovalForAll",
      "outputs": [],
      "stateMutability": "nonpayable",
      "type": "function"
    },
    {
      "inputs": [
        {
          "internalType": "bytes4",
          "name": "interfaceId",
          "type": "bytes4"
        }
      ],
      "name": "supportsInterface",
      "outputs": [
        {
          "internalType": "bool",
          "name": "",
          "type": "bool"
        }
      ],
      "stateMutability": "view",
      "type": "function"
    },
    {
      "inputs": [],
      "name": "symbol",
      "outputs": [
        {
          "internalType": "string",
          "name": "",
          "type": "string"
        }
      ],
      "stateMutability": "view",
      "type": "function"
    },
    {
      "inputs": [
        {
          "internalType": "uint256",
          "name": "tokenId",
          "type": "uint256"
        }
      ],
      "name": "tokenURI",
      "outputs": [
        {
          "internalType": "string",
          "name": "",
          "type": "string"
        }
      ],
      "stateMutability": "view",
      "type": "function"
    },
    {
      "inputs": [
        {
          "internalType": "address",
          "name": "from",
          "type": "address"
        },
        {
          "internalType": "address",
          "name": "to",
          "type": "address"
        },
        {
          "internalType": "uint256",
          "name": "tokenId",
          "type": "uint256"
        }
      ],
      "name": "transferFrom",
      "outputs": [],
      "stateMutability": "nonpayable",
      "type": "function"
    },
    {
      "inputs": [
        {
          "internalType": "address",
          "name": "newOwner",
          "type": "address"
        }
      ],
      "name": "transferOwnership",
      "outputs": [],
      "stateMutability": "nonpayable",
      "type": "function"
    }
  ],
  "transactionHash": "0x34586e9eac3e2ac8e1040a84e6bec45bb2db7b108f418bb0ff0d68a75e2dfefa",
  "args": [
    "Vajira110",
    "VJR110",
    "ipfs://QmZpobTNSL3JiZKenY2EygYG2bRY7BfvRX5mXL4WWhmeJN/",
    "1000"
  ],
  "numDeployments": 1,
  "solcInputHash": "1f772e066677e2297278deb5d43b972e",
  "bytecode": "0x60c06040523480156200001157600080fd5b50604051620033c3380380620033c383398181016040528101906200003791906200030a565b8383816000908051906020019062000051929190620001c5565b5080600190805190602001906200006a929190620001c5565b50505060016007819055506200009562000089620000f760201b60201c565b620000ff60201b60201c565b3373ffffffffffffffffffffffffffffffffffffffff1660808173ffffffffffffffffffffffffffffffffffffffff1660601b8152505081600a9080519060200190620000e4929190620001c5565b508060a081815250505050505062000581565b600033905090565b6000600860009054906101000a900473ffffffffffffffffffffffffffffffffffffffff16905081600860006101000a81548173ffffffffffffffffffffffffffffffffffffffff021916908373ffffffffffffffffffffffffffffffffffffffff1602179055508173ffffffffffffffffffffffffffffffffffffffff168173ffffffffffffffffffffffffffffffffffffffff167f8be0079c531659141344cd1fd0a4f28419497f9722a3daafe3b4186f6b6457e060405160405180910390a35050565b828054620001d39062000478565b90600052602060002090601f016020900481019282620001f7576000855562000243565b82601f106200021257805160ff191683800117855562000243565b8280016001018555821562000243579182015b828111156200024257825182559160200191906001019062000225565b5b50905062000252919062000256565b5090565b5b808211156200027157600081600090555060010162000257565b5090565b60006200028c620002868462000402565b620003d9565b905082815260208101848484011115620002ab57620002aa62000547565b5b620002b884828562000442565b509392505050565b600082601f830112620002d857620002d762000542565b5b8151620002ea84826020860162000275565b91505092915050565b600081519050620003048162000567565b92915050565b6000806000806080858703121562000327576200032662000551565b5b600085015167ffffffffffffffff8111156200034857620003476200054c565b5b6200035687828801620002c0565b945050602085015167ffffffffffffffff8111156200037a57620003796200054c565b5b6200038887828801620002c0565b935050604085015167ffffffffffffffff811115620003ac57620003ab6200054c565b5b620003ba87828801620002c0565b9250506060620003cd87828801620002f3565b91505092959194509250565b6000620003e5620003f8565b9050620003f38282620004ae565b919050565b6000604051905090565b600067ffffffffffffffff82111562000420576200041f62000513565b5b6200042b8262000556565b9050602081019050919050565b6000819050919050565b60005b838110156200046257808201518184015260208101905062000445565b8381111562000472576000848401525b50505050565b600060028204905060018216806200049157607f821691505b60208210811415620004a857620004a7620004e4565b5b50919050565b620004b98262000556565b810181811067ffffffffffffffff82111715620004db57620004da62000513565b5b80604052505050565b7f4e487b7100000000000000000000000000000000000000000000000000000000600052602260045260246000fd5b7f4e487b7100000000000000000000000000000000000000000000000000000000600052604160045260246000fd5b600080fd5b600080fd5b600080fd5b600080fd5b6000601f19601f8301169050919050565b620005728162000438565b81146200057e57600080fd5b50565b60805160601c60a051612e12620005b16000396000818161084c01526109ec01526000610c3f0152612e126000f3fe6080604052600436106101405760003560e01c806370a08231116100b6578063a22cb4651161006f578063a22cb46514610417578063a9bbfbd114610440578063b88d4fde1461046b578063c87b56dd14610494578063e985e9c5146104d1578063f2fde38b1461050e57610140565b806370a0823114610317578063715018a614610354578063893d20e81461036b5780638da5cb5b1461039657806395d89b41146103c157806398d5fdca146103ec57610140565b806323b872dd1161010857806323b872dd1461021d57806333a62a0a1461024657806342842e0e1461026f5780634c0f38c21461029857806357ea89b6146102c35780636352211e146102da57610140565b806301ffc9a71461014557806306fdde0314610182578063081812fc146101ad578063095ea7b3146101ea5780631249c58b14610213575b600080fd5b34801561015157600080fd5b5061016c60048036038101906101679190611f96565b610537565b60405161017991906123ee565b60405180910390f35b34801561018e57600080fd5b50610197610619565b6040516101a49190612409565b60405180910390f35b3480156101b957600080fd5b506101d460048036038101906101cf9190611ff0565b6106ab565b6040516101e19190612387565b60405180910390f35b3480156101f657600080fd5b50610211600480360381019061020c9190611f56565b6106f1565b005b61021b610809565b005b34801561022957600080fd5b50610244600480360381019061023f9190611e40565b6108d2565b005b34801561025257600080fd5b5061026d60048036038101906102689190611ff0565b610932565b005b34801561027b57600080fd5b5061029660048036038101906102919190611e40565b6109c8565b005b3480156102a457600080fd5b506102ad6109e8565b6040516102ba91906125eb565b60405180910390f35b3480156102cf57600080fd5b506102d8610a10565b005b3480156102e657600080fd5b5061030160048036038101906102fc9190611ff0565b610abd565b60405161030e9190612387565b60405180910390f35b34801561032357600080fd5b5061033e60048036038101906103399190611dd3565b610b6f565b60405161034b91906125eb565b60405180910390f35b34801561036057600080fd5b50610369610c27565b005b34801561037757600080fd5b50610380610c3b565b60405161038d9190612387565b60405180910390f35b3480156103a257600080fd5b506103ab610c63565b6040516103b89190612387565b60405180910390f35b3480156103cd57600080fd5b506103d6610c8d565b6040516103e39190612409565b60405180910390f35b3480156103f857600080fd5b50610401610d1f565b60405161040e91906125eb565b60405180910390f35b34801561042357600080fd5b5061043e60048036038101906104399190611f16565b610d2e565b005b34801561044c57600080fd5b50610455610d44565b6040516104629190612409565b60405180910390f35b34801561047757600080fd5b50610492600480360381019061048d9190611e93565b610dd2565b005b3480156104a057600080fd5b506104bb60048036038101906104b69190611ff0565b610e34565b6040516104c89190612409565b60405180910390f35b3480156104dd57600080fd5b506104f860048036038101906104f39190611e00565b610ed4565b60405161050591906123ee565b60405180910390f35b34801561051a57600080fd5b5061053560048036038101906105309190611dd3565b610f68565b005b60007f80ac58cd000000000000000000000000000000000000000000000000000000007bffffffffffffffffffffffffffffffffffffffffffffffffffffffff1916827bffffffffffffffffffffffffffffffffffffffffffffffffffffffff1916148061060257507f5b5e139f000000000000000000000000000000000000000000000000000000007bffffffffffffffffffffffffffffffffffffffffffffffffffffffff1916827bffffffffffffffffffffffffffffffffffffffffffffffffffffffff1916145b80610612575061061182610fec565b5b9050919050565b60606000805461062890612825565b80601f016020809104026020016040519081016040528092919081815260200182805461065490612825565b80156106a15780601f10610676576101008083540402835291602001916106a1565b820191906000526020600020905b81548152906001019060200180831161068457829003601f168201915b5050505050905090565b60006106b682611056565b6004600083815260200190815260200160002060009054906101000a900473ffffffffffffffffffffffffffffffffffffffff169050919050565b60006106fc82610abd565b90508073ffffffffffffffffffffffffffffffffffffffff168373ffffffffffffffffffffffffffffffffffffffff16141561076d576040517f08c379a00000000000000000000000000000000000000000000000000000000081526004016107649061258b565b60405180910390fd5b8073ffffffffffffffffffffffffffffffffffffffff1661078c6110a1565b73ffffffffffffffffffffffffffffffffffffffff1614806107bb57506107ba816107b56110a1565b610ed4565b5b6107fa576040517f08c379a00000000000000000000000000000000000000000000000000000000081526004016107f19061250b565b60405180910390fd5b61080483836110a9565b505050565b661aa535d3d0c00034101561084a576040517fd6b6ab9900000000000000000000000000000000000000000000000000000000815260040160405180910390fd5b7f00000000000000000000000000000000000000000000000000000000000000006108756009611162565b14156108ad576040517f8a164f6300000000000000000000000000000000000000000000000000000000815260040160405180910390fd5b60006108b96009611162565b90506108c53382611170565b6108cf600961134a565b50565b6108e36108dd6110a1565b82611360565b610922576040517f08c379a0000000000000000000000000000000000000000000000000000000008152600401610919906125ab565b60405180910390fd5b61092d8383836113f5565b505050565b61093a61165c565b60011515600b600083815260200190815260200160002060009054906101000a900460ff1615151415610999576040517fe834a83400000000000000000000000000000000000000000000000000000000815260040160405180910390fd5b6001600b600083815260200190815260200160002060006101000a81548160ff02191690831515021790555050565b6109e383838360405180602001604052806000815250610dd2565b505050565b60007f0000000000000000000000000000000000000000000000000000000000000000905090565b60026007541415610a56576040517f08c379a0000000000000000000000000000000000000000000000000000000008152600401610a4d906125cb565b60405180910390fd5b6002600781905550610a6661165c565b60004790503373ffffffffffffffffffffffffffffffffffffffff166108fc829081150290604051600060405180830381858888f19350505050158015610ab1573d6000803e3d6000fd5b50506001600781905550565b6000806002600084815260200190815260200160002060009054906101000a900473ffffffffffffffffffffffffffffffffffffffff169050600073ffffffffffffffffffffffffffffffffffffffff168173ffffffffffffffffffffffffffffffffffffffff161415610b66576040517f08c379a0000000000000000000000000000000000000000000000000000000008152600401610b5d9061256b565b60405180910390fd5b80915050919050565b60008073ffffffffffffffffffffffffffffffffffffffff168273ffffffffffffffffffffffffffffffffffffffff161415610be0576040517f08c379a0000000000000000000000000000000000000000000000000000000008152600401610bd7906124eb565b60405180910390fd5b600360008373ffffffffffffffffffffffffffffffffffffffff1673ffffffffffffffffffffffffffffffffffffffff168152602001908152602001600020549050919050565b610c2f61165c565b610c3960006116da565b565b60007f0000000000000000000000000000000000000000000000000000000000000000905090565b6000600860009054906101000a900473ffffffffffffffffffffffffffffffffffffffff16905090565b606060018054610c9c90612825565b80601f0160208091040260200160405190810160405280929190818152602001828054610cc890612825565b8015610d155780601f10610cea57610100808354040283529160200191610d15565b820191906000526020600020905b815481529060010190602001808311610cf857829003601f168201915b5050505050905090565b6000661aa535d3d0c000905090565b610d40610d396110a1565b83836117a0565b5050565b600a8054610d5190612825565b80601f0160208091040260200160405190810160405280929190818152602001828054610d7d90612825565b8015610dca5780601f10610d9f57610100808354040283529160200191610dca565b820191906000526020600020905b815481529060010190602001808311610dad57829003601f168201915b505050505081565b610de3610ddd6110a1565b83611360565b610e22576040517f08c379a0000000000000000000000000000000000000000000000000000000008152600401610e19906125ab565b60405180910390fd5b610e2e8484848461190d565b50505050565b6060610e3f82611056565b6000600a8054610e4e90612825565b905011610e6a5760405180602001604052806000815250610ecd565b600a610e7583611969565b6040518060400160405280600581526020017f2e6a736f6e000000000000000000000000000000000000000000000000000000815250604051602001610ebd93929190612356565b6040516020818303038152906040525b9050919050565b6000600560008473ffffffffffffffffffffffffffffffffffffffff1673ffffffffffffffffffffffffffffffffffffffff16815260200190815260200160002060008373ffffffffffffffffffffffffffffffffffffffff1673ffffffffffffffffffffffffffffffffffffffff16815260200190815260200160002060009054906101000a900460ff16905092915050565b610f7061165c565b600073ffffffffffffffffffffffffffffffffffffffff168173ffffffffffffffffffffffffffffffffffffffff161415610fe0576040517f08c379a0000000000000000000000000000000000000000000000000000000008152600401610fd79061244b565b60405180910390fd5b610fe9816116da565b50565b60007f01ffc9a7000000000000000000000000000000000000000000000000000000007bffffffffffffffffffffffffffffffffffffffffffffffffffffffff1916827bffffffffffffffffffffffffffffffffffffffffffffffffffffffff1916149050919050565b61105f81611aca565b61109e576040517f08c379a00000000000000000000000000000000000000000000000000000000081526004016110959061256b565b60405180910390fd5b50565b600033905090565b816004600083815260200190815260200160002060006101000a81548173ffffffffffffffffffffffffffffffffffffffff021916908373ffffffffffffffffffffffffffffffffffffffff160217905550808273ffffffffffffffffffffffffffffffffffffffff1661111c83610abd565b73ffffffffffffffffffffffffffffffffffffffff167f8c5be1e5ebec7d5bd14f71427d1e84f3dd0314c0f7b2291e5b200ac8c7c3b92560405160405180910390a45050565b600081600001549050919050565b600073ffffffffffffffffffffffffffffffffffffffff168273ffffffffffffffffffffffffffffffffffffffff1614156111e0576040517f08c379a00000000000000000000000000000000000000000000000000000000081526004016111d79061252b565b60405180910390fd5b6111e981611aca565b15611229576040517f08c379a00000000000000000000000000000000000000000000000000000000081526004016112209061248b565b60405180910390fd5b61123560008383611b36565b6001600360008473ffffffffffffffffffffffffffffffffffffffff1673ffffffffffffffffffffffffffffffffffffffff168152602001908152602001600020600082825461128591906126b4565b92505081905550816002600083815260200190815260200160002060006101000a81548173ffffffffffffffffffffffffffffffffffffffff021916908373ffffffffffffffffffffffffffffffffffffffff160217905550808273ffffffffffffffffffffffffffffffffffffffff16600073ffffffffffffffffffffffffffffffffffffffff167fddf252ad1be2c89b69c2b068fc378daa952ba7f163c4a11628f55a4df523b3ef60405160405180910390a461134660008383611b3b565b5050565b6001816000016000828254019250508190555050565b60008061136c83610abd565b90508073ffffffffffffffffffffffffffffffffffffffff168473ffffffffffffffffffffffffffffffffffffffff1614806113ae57506113ad8185610ed4565b5b806113ec57508373ffffffffffffffffffffffffffffffffffffffff166113d4846106ab565b73ffffffffffffffffffffffffffffffffffffffff16145b91505092915050565b8273ffffffffffffffffffffffffffffffffffffffff1661141582610abd565b73ffffffffffffffffffffffffffffffffffffffff161461146b576040517f08c379a00000000000000000000000000000000000000000000000000000000081526004016114629061246b565b60405180910390fd5b600073ffffffffffffffffffffffffffffffffffffffff168273ffffffffffffffffffffffffffffffffffffffff1614156114db576040517f08c379a00000000000000000000000000000000000000000000000000000000081526004016114d2906124ab565b60405180910390fd5b6114e6838383611b36565b6114f16000826110a9565b6001600360008573ffffffffffffffffffffffffffffffffffffffff1673ffffffffffffffffffffffffffffffffffffffff1681526020019081526020016000206000828254611541919061273b565b925050819055506001600360008473ffffffffffffffffffffffffffffffffffffffff1673ffffffffffffffffffffffffffffffffffffffff168152602001908152602001600020600082825461159891906126b4565b92505081905550816002600083815260200190815260200160002060006101000a81548173ffffffffffffffffffffffffffffffffffffffff021916908373ffffffffffffffffffffffffffffffffffffffff160217905550808273ffffffffffffffffffffffffffffffffffffffff168473ffffffffffffffffffffffffffffffffffffffff167fddf252ad1be2c89b69c2b068fc378daa952ba7f163c4a11628f55a4df523b3ef60405160405180910390a4611657838383611b3b565b505050565b6116646110a1565b73ffffffffffffffffffffffffffffffffffffffff16611682610c63565b73ffffffffffffffffffffffffffffffffffffffff16146116d8576040517f08c379a00000000000000000000000000000000000000000000000000000000081526004016116cf9061254b565b60405180910390fd5b565b6000600860009054906101000a900473ffffffffffffffffffffffffffffffffffffffff16905081600860006101000a81548173ffffffffffffffffffffffffffffffffffffffff021916908373ffffffffffffffffffffffffffffffffffffffff1602179055508173ffffffffffffffffffffffffffffffffffffffff168173ffffffffffffffffffffffffffffffffffffffff167f8be0079c531659141344cd1fd0a4f28419497f9722a3daafe3b4186f6b6457e060405160405180910390a35050565b8173ffffffffffffffffffffffffffffffffffffffff168373ffffffffffffffffffffffffffffffffffffffff16141561180f576040517f08c379a0000000000000000000000000000000000000000000000000000000008152600401611806906124cb565b60405180910390fd5b80600560008573ffffffffffffffffffffffffffffffffffffffff1673ffffffffffffffffffffffffffffffffffffffff16815260200190815260200160002060008473ffffffffffffffffffffffffffffffffffffffff1673ffffffffffffffffffffffffffffffffffffffff16815260200190815260200160002060006101000a81548160ff0219169083151502179055508173ffffffffffffffffffffffffffffffffffffffff168373ffffffffffffffffffffffffffffffffffffffff167f17307eab39ab6107e8899845ad3d59bd9653f200f220920489ca2b5937696c318360405161190091906123ee565b60405180910390a3505050565b6119188484846113f5565b61192484848484611b40565b611963576040517f08c379a000000000000000000000000000000000000000000000000000000000815260040161195a9061242b565b60405180910390fd5b50505050565b606060008214156119b1576040518060400160405280600181526020017f30000000000000000000000000000000000000000000000000000000000000008152509050611ac5565b600082905060005b600082146119e35780806119cc90612888565b915050600a826119dc919061270a565b91506119b9565b60008167ffffffffffffffff8111156119ff576119fe6129be565b5b6040519080825280601f01601f191660200182016040528015611a315781602001600182028036833780820191505090505b5090505b60008514611abe57600182611a4a919061273b565b9150600a85611a5991906128d1565b6030611a6591906126b4565b60f81b818381518110611a7b57611a7a61298f565b5b60200101907effffffffffffffffffffffffffffffffffffffffffffffffffffffffffffff1916908160001a905350600a85611ab7919061270a565b9450611a35565b8093505050505b919050565b60008073ffffffffffffffffffffffffffffffffffffffff166002600084815260200190815260200160002060009054906101000a900473ffffffffffffffffffffffffffffffffffffffff1673ffffffffffffffffffffffffffffffffffffffff1614159050919050565b505050565b505050565b6000611b618473ffffffffffffffffffffffffffffffffffffffff16611cd7565b15611cca578373ffffffffffffffffffffffffffffffffffffffff1663150b7a02611b8a6110a1565b8786866040518563ffffffff1660e01b8152600401611bac94939291906123a2565b602060405180830381600087803b158015611bc657600080fd5b505af1925050508015611bf757506040513d601f19601f82011682018060405250810190611bf49190611fc3565b60015b611c7a573d8060008114611c27576040519150601f19603f3d011682016040523d82523d6000602084013e611c2c565b606091505b50600081511415611c72576040517f08c379a0000000000000000000000000000000000000000000000000000000008152600401611c699061242b565b60405180910390fd5b805181602001fd5b63150b7a0260e01b7bffffffffffffffffffffffffffffffffffffffffffffffffffffffff1916817bffffffffffffffffffffffffffffffffffffffffffffffffffffffff191614915050611ccf565b600190505b949350505050565b6000808273ffffffffffffffffffffffffffffffffffffffff163b119050919050565b6000611d0d611d088461262b565b612606565b905082815260208101848484011115611d2957611d286129f2565b5b611d348482856127e3565b509392505050565b600081359050611d4b81612d80565b92915050565b600081359050611d6081612d97565b92915050565b600081359050611d7581612dae565b92915050565b600081519050611d8a81612dae565b92915050565b600082601f830112611da557611da46129ed565b5b8135611db5848260208601611cfa565b91505092915050565b600081359050611dcd81612dc5565b92915050565b600060208284031215611de957611de86129fc565b5b6000611df784828501611d3c565b91505092915050565b60008060408385031215611e1757611e166129fc565b5b6000611e2585828601611d3c565b9250506020611e3685828601611d3c565b9150509250929050565b600080600060608486031215611e5957611e586129fc565b5b6000611e6786828701611d3c565b9350506020611e7886828701611d3c565b9250506040611e8986828701611dbe565b9150509250925092565b60008060008060808587031215611ead57611eac6129fc565b5b6000611ebb87828801611d3c565b9450506020611ecc87828801611d3c565b9350506040611edd87828801611dbe565b925050606085013567ffffffffffffffff811115611efe57611efd6129f7565b5b611f0a87828801611d90565b91505092959194509250565b60008060408385031215611f2d57611f2c6129fc565b5b6000611f3b85828601611d3c565b9250506020611f4c85828601611d51565b9150509250929050565b60008060408385031215611f6d57611f6c6129fc565b5b6000611f7b85828601611d3c565b9250506020611f8c85828601611dbe565b9150509250929050565b600060208284031215611fac57611fab6129fc565b5b6000611fba84828501611d66565b91505092915050565b600060208284031215611fd957611fd86129fc565b5b6000611fe784828501611d7b565b91505092915050565b600060208284031215612006576120056129fc565b5b600061201484828501611dbe565b91505092915050565b6120268161276f565b82525050565b61203581612781565b82525050565b600061204682612671565b6120508185612687565b93506120608185602086016127f2565b61206981612a01565b840191505092915050565b600061207f8261267c565b6120898185612698565b93506120998185602086016127f2565b6120a281612a01565b840191505092915050565b60006120b88261267c565b6120c281856126a9565b93506120d28185602086016127f2565b80840191505092915050565b600081546120eb81612825565b6120f581866126a9565b94506001821660008114612110576001811461212157612154565b60ff19831686528186019350612154565b61212a8561265c565b60005b8381101561214c5781548189015260018201915060208101905061212d565b838801955050505b50505092915050565b600061216a603283612698565b915061217582612a12565b604082019050919050565b600061218d602683612698565b915061219882612a61565b604082019050919050565b60006121b0602583612698565b91506121bb82612ab0565b604082019050919050565b60006121d3601c83612698565b91506121de82612aff565b602082019050919050565b60006121f6602483612698565b915061220182612b28565b604082019050919050565b6000612219601983612698565b915061222482612b77565b602082019050919050565b600061223c602983612698565b915061224782612ba0565b604082019050919050565b600061225f603e83612698565b915061226a82612bef565b604082019050919050565b6000612282602083612698565b915061228d82612c3e565b602082019050919050565b60006122a5602083612698565b91506122b082612c67565b602082019050919050565b60006122c8601883612698565b91506122d382612c90565b602082019050919050565b60006122eb602183612698565b91506122f682612cb9565b604082019050919050565b600061230e602e83612698565b915061231982612d08565b604082019050919050565b6000612331601f83612698565b915061233c82612d57565b602082019050919050565b612350816127d9565b82525050565b600061236282866120de565b915061236e82856120ad565b915061237a82846120ad565b9150819050949350505050565b600060208201905061239c600083018461201d565b92915050565b60006080820190506123b7600083018761201d565b6123c4602083018661201d565b6123d16040830185612347565b81810360608301526123e3818461203b565b905095945050505050565b6000602082019050612403600083018461202c565b92915050565b600060208201905081810360008301526124238184612074565b905092915050565b600060208201905081810360008301526124448161215d565b9050919050565b6000602082019050818103600083015261246481612180565b9050919050565b60006020820190508181036000830152612484816121a3565b9050919050565b600060208201905081810360008301526124a4816121c6565b9050919050565b600060208201905081810360008301526124c4816121e9565b9050919050565b600060208201905081810360008301526124e48161220c565b9050919050565b600060208201905081810360008301526125048161222f565b9050919050565b6000602082019050818103600083015261252481612252565b9050919050565b6000602082019050818103600083015261254481612275565b9050919050565b6000602082019050818103600083015261256481612298565b9050919050565b60006020820190508181036000830152612584816122bb565b9050919050565b600060208201905081810360008301526125a4816122de565b9050919050565b600060208201905081810360008301526125c481612301565b9050919050565b600060208201905081810360008301526125e481612324565b9050919050565b60006020820190506126006000830184612347565b92915050565b6000612610612621565b905061261c8282612857565b919050565b6000604051905090565b600067ffffffffffffffff821115612646576126456129be565b5b61264f82612a01565b9050602081019050919050565b60008190508160005260206000209050919050565b600081519050919050565b600081519050919050565b600082825260208201905092915050565b600082825260208201905092915050565b600081905092915050565b60006126bf826127d9565b91506126ca836127d9565b9250827fffffffffffffffffffffffffffffffffffffffffffffffffffffffffffffffff038211156126ff576126fe612902565b5b828201905092915050565b6000612715826127d9565b9150612720836127d9565b9250826127305761272f612931565b5b828204905092915050565b6000612746826127d9565b9150612751836127d9565b92508282101561276457612763612902565b5b828203905092915050565b600061277a826127b9565b9050919050565b60008115159050919050565b60007fffffffff0000000000000000000000000000000000000000000000000000000082169050919050565b600073ffffffffffffffffffffffffffffffffffffffff82169050919050565b6000819050919050565b82818337600083830152505050565b60005b838110156128105780820151818401526020810190506127f5565b8381111561281f576000848401525b50505050565b6000600282049050600182168061283d57607f821691505b6020821081141561285157612850612960565b5b50919050565b61286082612a01565b810181811067ffffffffffffffff8211171561287f5761287e6129be565b5b80604052505050565b6000612893826127d9565b91507fffffffffffffffffffffffffffffffffffffffffffffffffffffffffffffffff8214156128c6576128c5612902565b5b600182019050919050565b60006128dc826127d9565b91506128e7836127d9565b9250826128f7576128f6612931565b5b828206905092915050565b7f4e487b7100000000000000000000000000000000000000000000000000000000600052601160045260246000fd5b7f4e487b7100000000000000000000000000000000000000000000000000000000600052601260045260246000fd5b7f4e487b7100000000000000000000000000000000000000000000000000000000600052602260045260246000fd5b7f4e487b7100000000000000000000000000000000000000000000000000000000600052603260045260246000fd5b7f4e487b7100000000000000000000000000000000000000000000000000000000600052604160045260246000fd5b600080fd5b600080fd5b600080fd5b600080fd5b6000601f19601f8301169050919050565b7f4552433732313a207472616e7366657220746f206e6f6e20455243373231526560008201527f63656976657220696d706c656d656e7465720000000000000000000000000000602082015250565b7f4f776e61626c653a206e6577206f776e657220697320746865207a65726f206160008201527f6464726573730000000000000000000000000000000000000000000000000000602082015250565b7f4552433732313a207472616e736665722066726f6d20696e636f72726563742060008201527f6f776e6572000000000000000000000000000000000000000000000000000000602082015250565b7f4552433732313a20746f6b656e20616c7265616479206d696e74656400000000600082015250565b7f4552433732313a207472616e7366657220746f20746865207a65726f2061646460008201527f7265737300000000000000000000000000000000000000000000000000000000602082015250565b7f4552433732313a20617070726f766520746f2063616c6c657200000000000000600082015250565b7f4552433732313a2061646472657373207a65726f206973206e6f74206120766160008201527f6c6964206f776e65720000000000000000000000000000000000000000000000602082015250565b7f4552433732313a20617070726f76652063616c6c6572206973206e6f7420746f60008201527f6b656e206f776e6572206e6f7220617070726f76656420666f7220616c6c0000602082015250565b7f4552433732313a206d696e7420746f20746865207a65726f2061646472657373600082015250565b7f4f776e61626c653a2063616c6c6572206973206e6f7420746865206f776e6572600082015250565b7f4552433732313a20696e76616c696420746f6b656e2049440000000000000000600082015250565b7f4552433732313a20617070726f76616c20746f2063757272656e74206f776e6560008201527f7200000000000000000000000000000000000000000000000000000000000000602082015250565b7f4552433732313a2063616c6c6572206973206e6f7420746f6b656e206f776e6560008201527f72206e6f7220617070726f766564000000000000000000000000000000000000602082015250565b7f5265656e7472616e637947756172643a207265656e7472616e742063616c6c00600082015250565b612d898161276f565b8114612d9457600080fd5b50565b612da081612781565b8114612dab57600080fd5b50565b612db78161278d565b8114612dc257600080fd5b50565b612dce816127d9565b8114612dd957600080fd5b5056fea264697066735822122065a88eefef609e9a6f14e99ca6db29bf983645e1843b0b2048c3b020ab62325764736f6c63430008070033",
  "devdoc": {
    "kind": "dev",
    "methods": {
      "approve(address,uint256)": {
        "details": "See {IERC721-approve}."
      },
      "balanceOf(address)": {
        "details": "See {IERC721-balanceOf}."
      },
      "getApproved(uint256)": {
        "details": "See {IERC721-getApproved}."
      },
      "isApprovedForAll(address,address)": {
        "details": "See {IERC721-isApprovedForAll}."
      },
      "name()": {
        "details": "See {IERC721Metadata-name}."
      },
      "owner()": {
        "details": "Returns the address of the current owner."
      },
      "ownerOf(uint256)": {
        "details": "See {IERC721-ownerOf}."
      },
      "renounceOwnership()": {
        "details": "Leaves the contract without owner. It will not be possible to call `onlyOwner` functions anymore. Can only be called by the current owner. NOTE: Renouncing ownership will leave the contract without an owner, thereby removing any functionality that is only available to the owner."
      },
      "safeTransferFrom(address,address,uint256)": {
        "details": "See {IERC721-safeTransferFrom}."
      },
      "safeTransferFrom(address,address,uint256,bytes)": {
        "details": "See {IERC721-safeTransferFrom}."
      },
      "setApprovalForAll(address,bool)": {
        "details": "See {IERC721-setApprovalForAll}."
      },
      "supportsInterface(bytes4)": {
        "details": "See {IERC165-supportsInterface}."
      },
      "symbol()": {
        "details": "See {IERC721Metadata-symbol}."
      },
      "tokenURI(uint256)": {
        "details": "See {IERC721Metadata-tokenURI}."
      },
      "transferFrom(address,address,uint256)": {
        "details": "See {IERC721-transferFrom}."
      },
      "transferOwnership(address)": {
        "details": "Transfers ownership of the contract to a new account (`newOwner`). Can only be called by the current owner."
      }
    },
    "version": 1
  },
  "userdoc": {
    "kind": "user",
    "methods": {
      "claimHealthCheck(uint256)": {
        "notice": "Claim health check off-chain      - Book health check      - Pay fee off-chain      - System confirm to blockchain (owner call this function)  Claim link  www.vajiraHealthCheckOrSomething.co.th"
      }
    },
    "version": 1
  },
  "storageLayout": {
    "storage": [
      {
        "astId": 178,
        "contract": "contracts/Vajira110.sol:Vajira110",
        "label": "_name",
        "offset": 0,
        "slot": "0",
        "type": "t_string_storage"
      },
      {
        "astId": 180,
        "contract": "contracts/Vajira110.sol:Vajira110",
        "label": "_symbol",
        "offset": 0,
        "slot": "1",
        "type": "t_string_storage"
      },
      {
        "astId": 184,
        "contract": "contracts/Vajira110.sol:Vajira110",
        "label": "_owners",
        "offset": 0,
        "slot": "2",
        "type": "t_mapping(t_uint256,t_address)"
      },
      {
        "astId": 188,
        "contract": "contracts/Vajira110.sol:Vajira110",
        "label": "_balances",
        "offset": 0,
        "slot": "3",
        "type": "t_mapping(t_address,t_uint256)"
      },
      {
        "astId": 192,
        "contract": "contracts/Vajira110.sol:Vajira110",
        "label": "_tokenApprovals",
        "offset": 0,
        "slot": "4",
        "type": "t_mapping(t_uint256,t_address)"
      },
      {
        "astId": 198,
        "contract": "contracts/Vajira110.sol:Vajira110",
        "label": "_operatorApprovals",
        "offset": 0,
        "slot": "5",
        "type": "t_mapping(t_address,t_mapping(t_address,t_bool))"
      },
      {
        "astId": 1166,
        "contract": "contracts/Vajira110.sol:Vajira110",
        "label": "_tokenURIs",
        "offset": 0,
        "slot": "6",
        "type": "t_mapping(t_uint256,t_string_storage)"
      },
      {
        "astId": 123,
        "contract": "contracts/Vajira110.sol:Vajira110",
        "label": "_status",
        "offset": 0,
        "slot": "7",
        "type": "t_uint256"
      },
      {
        "astId": 7,
        "contract": "contracts/Vajira110.sol:Vajira110",
        "label": "_owner",
        "offset": 0,
        "slot": "8",
        "type": "t_address"
      },
      {
        "astId": 1986,
        "contract": "contracts/Vajira110.sol:Vajira110",
        "label": "_tokenIds",
        "offset": 0,
        "slot": "9",
        "type": "t_struct(Counter)1628_storage"
      },
      {
        "astId": 1988,
        "contract": "contracts/Vajira110.sol:Vajira110",
        "label": "i_baseTokenURI",
        "offset": 0,
        "slot": "10",
        "type": "t_string_storage"
      },
      {
        "astId": 2002,
        "contract": "contracts/Vajira110.sol:Vajira110",
        "label": "claimedHealthCheck",
        "offset": 0,
        "slot": "11",
        "type": "t_mapping(t_uint256,t_bool)"
      }
    ],
    "types": {
      "t_address": {
        "encoding": "inplace",
        "label": "address",
        "numberOfBytes": "20"
      },
      "t_bool": {
        "encoding": "inplace",
        "label": "bool",
        "numberOfBytes": "1"
      },
      "t_mapping(t_address,t_bool)": {
        "encoding": "mapping",
        "key": "t_address",
        "label": "mapping(address => bool)",
        "numberOfBytes": "32",
        "value": "t_bool"
      },
      "t_mapping(t_address,t_mapping(t_address,t_bool))": {
        "encoding": "mapping",
        "key": "t_address",
        "label": "mapping(address => mapping(address => bool))",
        "numberOfBytes": "32",
        "value": "t_mapping(t_address,t_bool)"
      },
      "t_mapping(t_address,t_uint256)": {
        "encoding": "mapping",
        "key": "t_address",
        "label": "mapping(address => uint256)",
        "numberOfBytes": "32",
        "value": "t_uint256"
      },
      "t_mapping(t_uint256,t_address)": {
        "encoding": "mapping",
        "key": "t_uint256",
        "label": "mapping(uint256 => address)",
        "numberOfBytes": "32",
        "value": "t_address"
      },
      "t_mapping(t_uint256,t_bool)": {
        "encoding": "mapping",
        "key": "t_uint256",
        "label": "mapping(uint256 => bool)",
        "numberOfBytes": "32",
        "value": "t_bool"
      },
      "t_mapping(t_uint256,t_string_storage)": {
        "encoding": "mapping",
        "key": "t_uint256",
        "label": "mapping(uint256 => string)",
        "numberOfBytes": "32",
        "value": "t_string_storage"
      },
      "t_string_storage": {
        "encoding": "bytes",
        "label": "string",
        "numberOfBytes": "32"
      },
      "t_struct(Counter)1628_storage": {
        "encoding": "inplace",
        "label": "struct Counters.Counter",
        "members": [
          {
            "astId": 1627,
            "contract": "contracts/Vajira110.sol:Vajira110",
            "label": "_value",
            "offset": 0,
            "slot": "0",
            "type": "t_uint256"
          }
        ],
        "numberOfBytes": "32"
      },
      "t_uint256": {
        "encoding": "inplace",
        "label": "uint256",
        "numberOfBytes": "32"
      }
    }
  }
}