{
  "address": "0x06b3244b086cecC40F1e5A826f736Ded68068a0F",
  "abi": [
    {
      "inputs": [
        {
          "internalType": "string",
          "name": "_name",
          "type": "string"
        },
        {
          "internalType": "string",
          "name": "_symbol",
          "type": "string"
        },
        {
          "internalType": "string",
          "name": "_baseURI",
          "type": "string"
        },
        {
          "internalType": "uint256",
          "name": "_maxSupply",
          "type": "uint256"
        }
      ],
      "stateMutability": "nonpayable",
      "type": "constructor"
    },
    {
      "inputs": [],
      "name": "MaxSupplyExceeded",
      "type": "error"
    },
    {
      "inputs": [],
      "name": "NotEnoughMatic",
      "type": "error"
    },
    {
      "inputs": [],
      "name": "OnlyOwner",
      "type": "error"
    },
    {
      "anonymous": false,
      "inputs": [
        {
          "indexed": true,
          "internalType": "address",
          "name": "owner",
          "type": "address"
        },
        {
          "indexed": true,
          "internalType": "address",
          "name": "approved",
          "type": "address"
        },
        {
          "indexed": true,
          "internalType": "uint256",
          "name": "tokenId",
          "type": "uint256"
        }
      ],
      "name": "Approval",
      "type": "event"
    },
    {
      "anonymous": false,
      "inputs": [
        {
          "indexed": true,
          "internalType": "address",
          "name": "owner",
          "type": "address"
        },
        {
          "indexed": true,
          "internalType": "address",
          "name": "operator",
          "type": "address"
        },
        {
          "indexed": false,
          "internalType": "bool",
          "name": "approved",
          "type": "bool"
        }
      ],
      "name": "ApprovalForAll",
      "type": "event"
    },
    {
      "anonymous": false,
      "inputs": [
        {
          "indexed": true,
          "internalType": "address",
          "name": "from",
          "type": "address"
        },
        {
          "indexed": true,
          "internalType": "address",
          "name": "to",
          "type": "address"
        },
        {
          "indexed": true,
          "internalType": "uint256",
          "name": "tokenId",
          "type": "uint256"
        }
      ],
      "name": "Transfer",
      "type": "event"
    },
    {
      "inputs": [],
      "name": "Withdraw",
      "outputs": [],
      "stateMutability": "nonpayable",
      "type": "function"
    },
    {
      "inputs": [],
      "name": "_tokenIds",
      "outputs": [
        {
          "internalType": "uint256",
          "name": "_value",
          "type": "uint256"
        }
      ],
      "stateMutability": "view",
      "type": "function"
    },
    {
      "inputs": [
        {
          "internalType": "address",
          "name": "to",
          "type": "address"
        },
        {
          "internalType": "uint256",
          "name": "tokenId",
          "type": "uint256"
        }
      ],
      "name": "approve",
      "outputs": [],
      "stateMutability": "nonpayable",
      "type": "function"
    },
    {
      "inputs": [
        {
          "internalType": "address",
          "name": "owner",
          "type": "address"
        }
      ],
      "name": "balanceOf",
      "outputs": [
        {
          "internalType": "uint256",
          "name": "",
          "type": "uint256"
        }
      ],
      "stateMutability": "view",
      "type": "function"
    },
    {
      "inputs": [
        {
          "internalType": "uint256",
          "name": "_tokenIdClaim",
          "type": "uint256"
        }
      ],
      "name": "claimHealthCheck",
      "outputs": [],
      "stateMutability": "nonpayable",
      "type": "function"
    },
    {
      "inputs": [
        {
          "internalType": "uint256",
          "name": "tokenId",
          "type": "uint256"
        }
      ],
      "name": "getApproved",
      "outputs": [
        {
          "internalType": "address",
          "name": "",
          "type": "address"
        }
      ],
      "stateMutability": "view",
      "type": "function"
    },
    {
      "inputs": [],
      "name": "getMaxSupply",
      "outputs": [
        {
          "internalType": "uint256",
          "name": "",
          "type": "uint256"
        }
      ],
      "stateMutability": "view",
      "type": "function"
    },
    {
      "inputs": [],
      "name": "getOwner",
      "outputs": [
        {
          "internalType": "address",
          "name": "",
          "type": "address"
        }
      ],
      "stateMutability": "view",
      "type": "function"
    },
    {
      "inputs": [],
      "name": "getPrice",
      "outputs": [
        {
          "internalType": "uint256",
          "name": "",
          "type": "uint256"
        }
      ],
      "stateMutability": "pure",
      "type": "function"
    },
    {
      "inputs": [],
      "name": "i_baseTokenURI",
      "outputs": [
        {
          "internalType": "string",
          "name": "",
          "type": "string"
        }
      ],
      "stateMutability": "view",
      "type": "function"
    },
    {
      "inputs": [
        {
          "internalType": "address",
          "name": "owner",
          "type": "address"
        },
        {
          "internalType": "address",
          "name": "operator",
          "type": "address"
        }
      ],
      "name": "isApprovedForAll",
      "outputs": [
        {
          "internalType": "bool",
          "name": "",
          "type": "bool"
        }
      ],
      "stateMutability": "view",
      "type": "function"
    },
    {
      "inputs": [
        {
          "internalType": "address",
          "name": "_player",
          "type": "address"
        }
      ],
      "name": "mint",
      "outputs": [
        {
          "internalType": "uint256",
          "name": "",
          "type": "uint256"
        }
      ],
      "stateMutability": "payable",
      "type": "function"
    },
    {
      "inputs": [],
      "name": "name",
      "outputs": [
        {
          "internalType": "string",
          "name": "",
          "type": "string"
        }
      ],
      "stateMutability": "view",
      "type": "function"
    },
    {
      "inputs": [
        {
          "internalType": "uint256",
          "name": "tokenId",
          "type": "uint256"
        }
      ],
      "name": "ownerOf",
      "outputs": [
        {
          "internalType": "address",
          "name": "",
          "type": "address"
        }
      ],
      "stateMutability": "view",
      "type": "function"
    },
    {
      "inputs": [
        {
          "internalType": "address",
          "name": "from",
          "type": "address"
        },
        {
          "internalType": "address",
          "name": "to",
          "type": "address"
        },
        {
          "internalType": "uint256",
          "name": "tokenId",
          "type": "uint256"
        }
      ],
      "name": "safeTransferFrom",
      "outputs": [],
      "stateMutability": "nonpayable",
      "type": "function"
    },
    {
      "inputs": [
        {
          "internalType": "address",
          "name": "from",
          "type": "address"
        },
        {
          "internalType": "address",
          "name": "to",
          "type": "address"
        },
        {
          "internalType": "uint256",
          "name": "tokenId",
          "type": "uint256"
        },
        {
          "internalType": "bytes",
          "name": "data",
          "type": "bytes"
        }
      ],
      "name": "safeTransferFrom",
      "outputs": [],
      "stateMutability": "nonpayable",
      "type": "function"
    },
    {
      "inputs": [
        {
          "internalType": "address",
          "name": "operator",
          "type": "address"
        },
        {
          "internalType": "bool",
          "name": "approved",
          "type": "bool"
        }
      ],
      "name": "setApprovalForAll",
      "outputs": [],
      "stateMutability": "nonpayable",
      "type": "function"
    },
    {
      "inputs": [
        {
          "internalType": "string",
          "name": "_newURI",
          "type": "string"
        }
      ],
      "name": "setBaseURI",
      "outputs": [],
      "stateMutability": "nonpayable",
      "type": "function"
    },
    {
      "inputs": [
        {
          "internalType": "bytes4",
          "name": "interfaceId",
          "type": "bytes4"
        }
      ],
      "name": "supportsInterface",
      "outputs": [
        {
          "internalType": "bool",
          "name": "",
          "type": "bool"
        }
      ],
      "stateMutability": "view",
      "type": "function"
    },
    {
      "inputs": [],
      "name": "symbol",
      "outputs": [
        {
          "internalType": "string",
          "name": "",
          "type": "string"
        }
      ],
      "stateMutability": "view",
      "type": "function"
    },
    {
      "inputs": [
        {
          "internalType": "uint256",
          "name": "tokenId",
          "type": "uint256"
        }
      ],
      "name": "tokenURI",
      "outputs": [
        {
          "internalType": "string",
          "name": "",
          "type": "string"
        }
      ],
      "stateMutability": "view",
      "type": "function"
    },
    {
      "inputs": [
        {
          "internalType": "address",
          "name": "from",
          "type": "address"
        },
        {
          "internalType": "address",
          "name": "to",
          "type": "address"
        },
        {
          "internalType": "uint256",
          "name": "tokenId",
          "type": "uint256"
        }
      ],
      "name": "transferFrom",
      "outputs": [],
      "stateMutability": "nonpayable",
      "type": "function"
    }
  ],
  "transactionHash": "0x463d528fe51a965be69ff689d5c150d10abd064a3ce0af3892d09ba122462ae3",
  "args": [
    "Vajira110",
    "VJR110",
    "ipfs://Qmc2Cq59FDMvCj54jVwx2zeNRftSdNRKtCm4pUaJDVh3Ns/",
    "1000"
  ],
  "numDeployments": 2,
  "solcInputHash": "f489c20bac484cb9a60a3611acbdda24",
  "bytecode": "0x60c06040523480156200001157600080fd5b50604051620034e0380380620034e0833981810160405281019062000037919062000249565b838381600090805190602001906200005192919062000104565b5080600190805190602001906200006a92919062000104565b50505060016007819055503373ffffffffffffffffffffffffffffffffffffffff1660808173ffffffffffffffffffffffffffffffffffffffff1660601b815250508160099080519060200190620000c492919062000104565b508060a08181525050620000e46008620000ee60201b620011861760201c565b50505050620004c0565b6001816000016000828254019250508190555050565b8280546200011290620003b7565b90600052602060002090601f01602090048101928262000136576000855562000182565b82601f106200015157805160ff191683800117855562000182565b8280016001018555821562000182579182015b828111156200018157825182559160200191906001019062000164565b5b50905062000191919062000195565b5090565b5b80821115620001b057600081600090555060010162000196565b5090565b6000620001cb620001c58462000341565b62000318565b905082815260208101848484011115620001ea57620001e962000486565b5b620001f784828562000381565b509392505050565b600082601f83011262000217576200021662000481565b5b815162000229848260208601620001b4565b91505092915050565b6000815190506200024381620004a6565b92915050565b6000806000806080858703121562000266576200026562000490565b5b600085015167ffffffffffffffff8111156200028757620002866200048b565b5b6200029587828801620001ff565b945050602085015167ffffffffffffffff811115620002b957620002b86200048b565b5b620002c787828801620001ff565b935050604085015167ffffffffffffffff811115620002eb57620002ea6200048b565b5b620002f987828801620001ff565b92505060606200030c8782880162000232565b91505092959194509250565b60006200032462000337565b9050620003328282620003ed565b919050565b6000604051905090565b600067ffffffffffffffff8211156200035f576200035e62000452565b5b6200036a8262000495565b9050602081019050919050565b6000819050919050565b60005b83811015620003a157808201518184015260208101905062000384565b83811115620003b1576000848401525b50505050565b60006002820490506001821680620003d057607f821691505b60208210811415620003e757620003e662000423565b5b50919050565b620003f88262000495565b810181811067ffffffffffffffff821117156200041a576200041962000452565b5b80604052505050565b7f4e487b7100000000000000000000000000000000000000000000000000000000600052602260045260246000fd5b7f4e487b7100000000000000000000000000000000000000000000000000000000600052604160045260246000fd5b600080fd5b600080fd5b600080fd5b600080fd5b6000601f19601f8301169050919050565b620004b18162000377565b8114620004bd57600080fd5b50565b60805160601c60a051612fdb62000505600039600081816109450152610c2b01526000818161086f0152818161096b01528181610a580152610e060152612fdb6000f3fe6080604052600436106101355760003560e01c80636a627842116100ab578063a22cb4651161006f578063a22cb46514610419578063a9bbfbd114610442578063aa46a4001461046d578063b88d4fde14610498578063c87b56dd146104c1578063e985e9c5146104fe57610135565b80636a6278421461032b57806370a082311461035b578063893d20e81461039857806395d89b41146103c357806398d5fdca146103ee57610135565b806333a62a0a116100fd57806333a62a0a1461023157806342842e0e1461025a5780634c0f38c21461028357806355f804b3146102ae57806357ea89b6146102d75780636352211e146102ee57610135565b806301ffc9a71461013a57806306fdde0314610177578063081812fc146101a2578063095ea7b3146101df57806323b872dd14610208575b600080fd5b34801561014657600080fd5b50610161600480360381019061015c91906121f2565b61053b565b60405161016e91906125e4565b60405180910390f35b34801561018357600080fd5b5061018c61061d565b60405161019991906125ff565b60405180910390f35b3480156101ae57600080fd5b506101c960048036038101906101c49190612295565b6106af565b6040516101d6919061257d565b60405180910390f35b3480156101eb57600080fd5b50610206600480360381019061020191906121b2565b6106f5565b005b34801561021457600080fd5b5061022f600480360381019061022a919061209c565b61080d565b005b34801561023d57600080fd5b5061025860048036038101906102539190612295565b61086d565b005b34801561026657600080fd5b50610281600480360381019061027c919061209c565b610921565b005b34801561028f57600080fd5b50610298610941565b6040516102a591906127c1565b60405180910390f35b3480156102ba57600080fd5b506102d560048036038101906102d0919061224c565b610969565b005b3480156102e357600080fd5b506102ec610a08565b005b3480156102fa57600080fd5b5061031560048036038101906103109190612295565b610b32565b604051610322919061257d565b60405180910390f35b6103456004803603810190610340919061202f565b610be4565b60405161035291906127c1565b60405180910390f35b34801561036757600080fd5b50610382600480360381019061037d919061202f565b610d4a565b60405161038f91906127c1565b60405180910390f35b3480156103a457600080fd5b506103ad610e02565b6040516103ba919061257d565b60405180910390f35b3480156103cf57600080fd5b506103d8610e2a565b6040516103e591906125ff565b60405180910390f35b3480156103fa57600080fd5b50610403610ebc565b60405161041091906127c1565b60405180910390f35b34801561042557600080fd5b50610440600480360381019061043b9190612172565b610ecd565b005b34801561044e57600080fd5b50610457610ee3565b60405161046491906125ff565b60405180910390f35b34801561047957600080fd5b50610482610f71565b60405161048f91906127c1565b60405180910390f35b3480156104a457600080fd5b506104bf60048036038101906104ba91906120ef565b610f7d565b005b3480156104cd57600080fd5b506104e860048036038101906104e39190612295565b610fdf565b6040516104f591906125ff565b60405180910390f35b34801561050a57600080fd5b506105256004803603810190610520919061205c565b6110f2565b60405161053291906125e4565b60405180910390f35b60007f80ac58cd000000000000000000000000000000000000000000000000000000007bffffffffffffffffffffffffffffffffffffffffffffffffffffffff1916827bffffffffffffffffffffffffffffffffffffffffffffffffffffffff1916148061060657507f5b5e139f000000000000000000000000000000000000000000000000000000007bffffffffffffffffffffffffffffffffffffffffffffffffffffffff1916827bffffffffffffffffffffffffffffffffffffffffffffffffffffffff1916145b8061061657506106158261119c565b5b9050919050565b60606000805461062c90612a17565b80601f016020809104026020016040519081016040528092919081815260200182805461065890612a17565b80156106a55780601f1061067a576101008083540402835291602001916106a5565b820191906000526020600020905b81548152906001019060200180831161068857829003601f168201915b5050505050905090565b60006106ba82611206565b6004600083815260200190815260200160002060009054906101000a900473ffffffffffffffffffffffffffffffffffffffff169050919050565b600061070082610b32565b90508073ffffffffffffffffffffffffffffffffffffffff168373ffffffffffffffffffffffffffffffffffffffff161415610771576040517f08c379a000000000000000000000000000000000000000000000000000000000815260040161076890612761565b60405180910390fd5b8073ffffffffffffffffffffffffffffffffffffffff16610790611251565b73ffffffffffffffffffffffffffffffffffffffff1614806107bf57506107be816107b9611251565b6110f2565b5b6107fe576040517f08c379a00000000000000000000000000000000000000000000000000000000081526004016107f590612701565b60405180910390fd5b6108088383611259565b505050565b61081e610818611251565b82611312565b61085d576040517f08c379a000000000000000000000000000000000000000000000000000000000815260040161085490612781565b60405180910390fd5b6108688383836113a7565b505050565b7f000000000000000000000000000000000000000000000000000000000000000073ffffffffffffffffffffffffffffffffffffffff163373ffffffffffffffffffffffffffffffffffffffff16146108f2576040517f5fc483c500000000000000000000000000000000000000000000000000000000815260040160405180910390fd5b6001600b600083815260200190815260200160002060006101000a81548160ff02191690831515021790555050565b61093c83838360405180602001604052806000815250610f7d565b505050565b60007f0000000000000000000000000000000000000000000000000000000000000000905090565b7f000000000000000000000000000000000000000000000000000000000000000073ffffffffffffffffffffffffffffffffffffffff163373ffffffffffffffffffffffffffffffffffffffff16146109ee576040517f5fc483c500000000000000000000000000000000000000000000000000000000815260040160405180910390fd5b8060099080519060200190610a04929190611e43565b5050565b60026007541415610a4e576040517f08c379a0000000000000000000000000000000000000000000000000000000008152600401610a45906127a1565b60405180910390fd5b60026007819055507f000000000000000000000000000000000000000000000000000000000000000073ffffffffffffffffffffffffffffffffffffffff163373ffffffffffffffffffffffffffffffffffffffff1614610adb576040517f5fc483c500000000000000000000000000000000000000000000000000000000815260040160405180910390fd5b60004790503373ffffffffffffffffffffffffffffffffffffffff166108fc829081150290604051600060405180830381858888f19350505050158015610b26573d6000803e3d6000fd5b50506001600781905550565b6000806002600084815260200190815260200160002060009054906101000a900473ffffffffffffffffffffffffffffffffffffffff169050600073ffffffffffffffffffffffffffffffffffffffff168173ffffffffffffffffffffffffffffffffffffffff161415610bdb576040517f08c379a0000000000000000000000000000000000000000000000000000000008152600401610bd290612741565b60405180910390fd5b80915050919050565b6000680410d586a20a4c0000341015610c29576040517fd6b6ab9900000000000000000000000000000000000000000000000000000000815260040160405180910390fd5b7f0000000000000000000000000000000000000000000000000000000000000000610c54600861160e565b10610c8b576040517f8a164f6300000000000000000000000000000000000000000000000000000000815260040160405180910390fd5b6000610c97600861160e565b9050610ca3838261161c565b610d378160098054610cb490612a17565b80601f0160208091040260200160405190810160405280929190818152602001828054610ce090612a17565b8015610d2d5780601f10610d0257610100808354040283529160200191610d2d565b820191906000526020600020905b815481529060010190602001808311610d1057829003601f168201915b50505050506117f6565b610d416008611186565b80915050919050565b60008073ffffffffffffffffffffffffffffffffffffffff168273ffffffffffffffffffffffffffffffffffffffff161415610dbb576040517f08c379a0000000000000000000000000000000000000000000000000000000008152600401610db2906126c1565b60405180910390fd5b600360008373ffffffffffffffffffffffffffffffffffffffff1673ffffffffffffffffffffffffffffffffffffffff168152602001908152602001600020549050919050565b60007f0000000000000000000000000000000000000000000000000000000000000000905090565b606060018054610e3990612a17565b80601f0160208091040260200160405190810160405280929190818152602001828054610e6590612a17565b8015610eb25780601f10610e8757610100808354040283529160200191610eb2565b820191906000526020600020905b815481529060010190602001808311610e9557829003601f168201915b5050505050905090565b6000680410d586a20a4c0000905090565b610edf610ed8611251565b838361186a565b5050565b60098054610ef090612a17565b80601f0160208091040260200160405190810160405280929190818152602001828054610f1c90612a17565b8015610f695780601f10610f3e57610100808354040283529160200191610f69565b820191906000526020600020905b815481529060010190602001808311610f4c57829003601f168201915b505050505081565b60088060000154905081565b610f8e610f88611251565b83611312565b610fcd576040517f08c379a0000000000000000000000000000000000000000000000000000000008152600401610fc490612781565b60405180910390fd5b610fd9848484846119d7565b50505050565b6060610fea82611206565b600060066000848152602001908152602001600020805461100a90612a17565b80601f016020809104026020016040519081016040528092919081815260200182805461103690612a17565b80156110835780601f1061105857610100808354040283529160200191611083565b820191906000526020600020905b81548152906001019060200180831161106657829003601f168201915b505050505090506000611094611a33565b90506000815114156110aa5781925050506110ed565b6000825111156110df5780826040516020016110c7929190612559565b604051602081830303815290604052925050506110ed565b6110e884611a4a565b925050505b919050565b6000600560008473ffffffffffffffffffffffffffffffffffffffff1673ffffffffffffffffffffffffffffffffffffffff16815260200190815260200160002060008373ffffffffffffffffffffffffffffffffffffffff1673ffffffffffffffffffffffffffffffffffffffff16815260200190815260200160002060009054906101000a900460ff16905092915050565b6001816000016000828254019250508190555050565b60007f01ffc9a7000000000000000000000000000000000000000000000000000000007bffffffffffffffffffffffffffffffffffffffffffffffffffffffff1916827bffffffffffffffffffffffffffffffffffffffffffffffffffffffff1916149050919050565b61120f81611ab2565b61124e576040517f08c379a000000000000000000000000000000000000000000000000000000000815260040161124590612741565b60405180910390fd5b50565b600033905090565b816004600083815260200190815260200160002060006101000a81548173ffffffffffffffffffffffffffffffffffffffff021916908373ffffffffffffffffffffffffffffffffffffffff160217905550808273ffffffffffffffffffffffffffffffffffffffff166112cc83610b32565b73ffffffffffffffffffffffffffffffffffffffff167f8c5be1e5ebec7d5bd14f71427d1e84f3dd0314c0f7b2291e5b200ac8c7c3b92560405160405180910390a45050565b60008061131e83610b32565b90508073ffffffffffffffffffffffffffffffffffffffff168473ffffffffffffffffffffffffffffffffffffffff161480611360575061135f81856110f2565b5b8061139e57508373ffffffffffffffffffffffffffffffffffffffff16611386846106af565b73ffffffffffffffffffffffffffffffffffffffff16145b91505092915050565b8273ffffffffffffffffffffffffffffffffffffffff166113c782610b32565b73ffffffffffffffffffffffffffffffffffffffff161461141d576040517f08c379a000000000000000000000000000000000000000000000000000000000815260040161141490612641565b60405180910390fd5b600073ffffffffffffffffffffffffffffffffffffffff168273ffffffffffffffffffffffffffffffffffffffff16141561148d576040517f08c379a000000000000000000000000000000000000000000000000000000000815260040161148490612681565b60405180910390fd5b611498838383611b1e565b6114a3600082611259565b6001600360008573ffffffffffffffffffffffffffffffffffffffff1673ffffffffffffffffffffffffffffffffffffffff16815260200190815260200160002060008282546114f3919061292d565b925050819055506001600360008473ffffffffffffffffffffffffffffffffffffffff1673ffffffffffffffffffffffffffffffffffffffff168152602001908152602001600020600082825461154a91906128a6565b92505081905550816002600083815260200190815260200160002060006101000a81548173ffffffffffffffffffffffffffffffffffffffff021916908373ffffffffffffffffffffffffffffffffffffffff160217905550808273ffffffffffffffffffffffffffffffffffffffff168473ffffffffffffffffffffffffffffffffffffffff167fddf252ad1be2c89b69c2b068fc378daa952ba7f163c4a11628f55a4df523b3ef60405160405180910390a4611609838383611b23565b505050565b600081600001549050919050565b600073ffffffffffffffffffffffffffffffffffffffff168273ffffffffffffffffffffffffffffffffffffffff16141561168c576040517f08c379a000000000000000000000000000000000000000000000000000000000815260040161168390612721565b60405180910390fd5b61169581611ab2565b156116d5576040517f08c379a00000000000000000000000000000000000000000000000000000000081526004016116cc90612661565b60405180910390fd5b6116e160008383611b1e565b6001600360008473ffffffffffffffffffffffffffffffffffffffff1673ffffffffffffffffffffffffffffffffffffffff168152602001908152602001600020600082825461173191906128a6565b92505081905550816002600083815260200190815260200160002060006101000a81548173ffffffffffffffffffffffffffffffffffffffff021916908373ffffffffffffffffffffffffffffffffffffffff160217905550808273ffffffffffffffffffffffffffffffffffffffff16600073ffffffffffffffffffffffffffffffffffffffff167fddf252ad1be2c89b69c2b068fc378daa952ba7f163c4a11628f55a4df523b3ef60405160405180910390a46117f260008383611b23565b5050565b6117ff82611ab2565b61183e576040517f08c379a0000000000000000000000000000000000000000000000000000000008152600401611835906126e1565b60405180910390fd5b80600660008481526020019081526020016000209080519060200190611865929190611e43565b505050565b8173ffffffffffffffffffffffffffffffffffffffff168373ffffffffffffffffffffffffffffffffffffffff1614156118d9576040517f08c379a00000000000000000000000000000000000000000000000000000000081526004016118d0906126a1565b60405180910390fd5b80600560008573ffffffffffffffffffffffffffffffffffffffff1673ffffffffffffffffffffffffffffffffffffffff16815260200190815260200160002060008473ffffffffffffffffffffffffffffffffffffffff1673ffffffffffffffffffffffffffffffffffffffff16815260200190815260200160002060006101000a81548160ff0219169083151502179055508173ffffffffffffffffffffffffffffffffffffffff168373ffffffffffffffffffffffffffffffffffffffff167f17307eab39ab6107e8899845ad3d59bd9653f200f220920489ca2b5937696c31836040516119ca91906125e4565b60405180910390a3505050565b6119e28484846113a7565b6119ee84848484611b28565b611a2d576040517f08c379a0000000000000000000000000000000000000000000000000000000008152600401611a2490612621565b60405180910390fd5b50505050565b606060405180602001604052806000815250905090565b6060611a5582611206565b6000611a5f611a33565b90506000815111611a7f5760405180602001604052806000815250611aaa565b80611a8984611cbf565b604051602001611a9a929190612559565b6040516020818303038152906040525b915050919050565b60008073ffffffffffffffffffffffffffffffffffffffff166002600084815260200190815260200160002060009054906101000a900473ffffffffffffffffffffffffffffffffffffffff1673ffffffffffffffffffffffffffffffffffffffff1614159050919050565b505050565b505050565b6000611b498473ffffffffffffffffffffffffffffffffffffffff16611e20565b15611cb2578373ffffffffffffffffffffffffffffffffffffffff1663150b7a02611b72611251565b8786866040518563ffffffff1660e01b8152600401611b949493929190612598565b602060405180830381600087803b158015611bae57600080fd5b505af1925050508015611bdf57506040513d601f19601f82011682018060405250810190611bdc919061221f565b60015b611c62573d8060008114611c0f576040519150601f19603f3d011682016040523d82523d6000602084013e611c14565b606091505b50600081511415611c5a576040517f08c379a0000000000000000000000000000000000000000000000000000000008152600401611c5190612621565b60405180910390fd5b805181602001fd5b63150b7a0260e01b7bffffffffffffffffffffffffffffffffffffffffffffffffffffffff1916817bffffffffffffffffffffffffffffffffffffffffffffffffffffffff191614915050611cb7565b600190505b949350505050565b60606000821415611d07576040518060400160405280600181526020017f30000000000000000000000000000000000000000000000000000000000000008152509050611e1b565b600082905060005b60008214611d39578080611d2290612a7a565b915050600a82611d3291906128fc565b9150611d0f565b60008167ffffffffffffffff811115611d5557611d54612bb0565b5b6040519080825280601f01601f191660200182016040528015611d875781602001600182028036833780820191505090505b5090505b60008514611e1457600182611da0919061292d565b9150600a85611daf9190612ac3565b6030611dbb91906128a6565b60f81b818381518110611dd157611dd0612b81565b5b60200101907effffffffffffffffffffffffffffffffffffffffffffffffffffffffffffff1916908160001a905350600a85611e0d91906128fc565b9450611d8b565b8093505050505b919050565b6000808273ffffffffffffffffffffffffffffffffffffffff163b119050919050565b828054611e4f90612a17565b90600052602060002090601f016020900481019282611e715760008555611eb8565b82601f10611e8a57805160ff1916838001178555611eb8565b82800160010185558215611eb8579182015b82811115611eb7578251825591602001919060010190611e9c565b5b509050611ec59190611ec9565b5090565b5b80821115611ee2576000816000905550600101611eca565b5090565b6000611ef9611ef484612801565b6127dc565b905082815260208101848484011115611f1557611f14612be4565b5b611f208482856129d5565b509392505050565b6000611f3b611f3684612832565b6127dc565b905082815260208101848484011115611f5757611f56612be4565b5b611f628482856129d5565b509392505050565b600081359050611f7981612f49565b92915050565b600081359050611f8e81612f60565b92915050565b600081359050611fa381612f77565b92915050565b600081519050611fb881612f77565b92915050565b600082601f830112611fd357611fd2612bdf565b5b8135611fe3848260208601611ee6565b91505092915050565b600082601f83011261200157612000612bdf565b5b8135612011848260208601611f28565b91505092915050565b60008135905061202981612f8e565b92915050565b60006020828403121561204557612044612bee565b5b600061205384828501611f6a565b91505092915050565b6000806040838503121561207357612072612bee565b5b600061208185828601611f6a565b925050602061209285828601611f6a565b9150509250929050565b6000806000606084860312156120b5576120b4612bee565b5b60006120c386828701611f6a565b93505060206120d486828701611f6a565b92505060406120e58682870161201a565b9150509250925092565b6000806000806080858703121561210957612108612bee565b5b600061211787828801611f6a565b945050602061212887828801611f6a565b93505060406121398782880161201a565b925050606085013567ffffffffffffffff81111561215a57612159612be9565b5b61216687828801611fbe565b91505092959194509250565b6000806040838503121561218957612188612bee565b5b600061219785828601611f6a565b92505060206121a885828601611f7f565b9150509250929050565b600080604083850312156121c9576121c8612bee565b5b60006121d785828601611f6a565b92505060206121e88582860161201a565b9150509250929050565b60006020828403121561220857612207612bee565b5b600061221684828501611f94565b91505092915050565b60006020828403121561223557612234612bee565b5b600061224384828501611fa9565b91505092915050565b60006020828403121561226257612261612bee565b5b600082013567ffffffffffffffff8111156122805761227f612be9565b5b61228c84828501611fec565b91505092915050565b6000602082840312156122ab576122aa612bee565b5b60006122b98482850161201a565b91505092915050565b6122cb81612961565b82525050565b6122da81612973565b82525050565b60006122eb82612863565b6122f58185612879565b93506123058185602086016129e4565b61230e81612bf3565b840191505092915050565b60006123248261286e565b61232e818561288a565b935061233e8185602086016129e4565b61234781612bf3565b840191505092915050565b600061235d8261286e565b612367818561289b565b93506123778185602086016129e4565b80840191505092915050565b600061239060328361288a565b915061239b82612c04565b604082019050919050565b60006123b360258361288a565b91506123be82612c53565b604082019050919050565b60006123d6601c8361288a565b91506123e182612ca2565b602082019050919050565b60006123f960248361288a565b915061240482612ccb565b604082019050919050565b600061241c60198361288a565b915061242782612d1a565b602082019050919050565b600061243f60298361288a565b915061244a82612d43565b604082019050919050565b6000612462602e8361288a565b915061246d82612d92565b604082019050919050565b6000612485603e8361288a565b915061249082612de1565b604082019050919050565b60006124a860208361288a565b91506124b382612e30565b602082019050919050565b60006124cb60188361288a565b91506124d682612e59565b602082019050919050565b60006124ee60218361288a565b91506124f982612e82565b604082019050919050565b6000612511602e8361288a565b915061251c82612ed1565b604082019050919050565b6000612534601f8361288a565b915061253f82612f20565b602082019050919050565b612553816129cb565b82525050565b60006125658285612352565b91506125718284612352565b91508190509392505050565b600060208201905061259260008301846122c2565b92915050565b60006080820190506125ad60008301876122c2565b6125ba60208301866122c2565b6125c7604083018561254a565b81810360608301526125d981846122e0565b905095945050505050565b60006020820190506125f960008301846122d1565b92915050565b600060208201905081810360008301526126198184612319565b905092915050565b6000602082019050818103600083015261263a81612383565b9050919050565b6000602082019050818103600083015261265a816123a6565b9050919050565b6000602082019050818103600083015261267a816123c9565b9050919050565b6000602082019050818103600083015261269a816123ec565b9050919050565b600060208201905081810360008301526126ba8161240f565b9050919050565b600060208201905081810360008301526126da81612432565b9050919050565b600060208201905081810360008301526126fa81612455565b9050919050565b6000602082019050818103600083015261271a81612478565b9050919050565b6000602082019050818103600083015261273a8161249b565b9050919050565b6000602082019050818103600083015261275a816124be565b9050919050565b6000602082019050818103600083015261277a816124e1565b9050919050565b6000602082019050818103600083015261279a81612504565b9050919050565b600060208201905081810360008301526127ba81612527565b9050919050565b60006020820190506127d6600083018461254a565b92915050565b60006127e66127f7565b90506127f28282612a49565b919050565b6000604051905090565b600067ffffffffffffffff82111561281c5761281b612bb0565b5b61282582612bf3565b9050602081019050919050565b600067ffffffffffffffff82111561284d5761284c612bb0565b5b61285682612bf3565b9050602081019050919050565b600081519050919050565b600081519050919050565b600082825260208201905092915050565b600082825260208201905092915050565b600081905092915050565b60006128b1826129cb565b91506128bc836129cb565b9250827fffffffffffffffffffffffffffffffffffffffffffffffffffffffffffffffff038211156128f1576128f0612af4565b5b828201905092915050565b6000612907826129cb565b9150612912836129cb565b92508261292257612921612b23565b5b828204905092915050565b6000612938826129cb565b9150612943836129cb565b92508282101561295657612955612af4565b5b828203905092915050565b600061296c826129ab565b9050919050565b60008115159050919050565b60007fffffffff0000000000000000000000000000000000000000000000000000000082169050919050565b600073ffffffffffffffffffffffffffffffffffffffff82169050919050565b6000819050919050565b82818337600083830152505050565b60005b83811015612a025780820151818401526020810190506129e7565b83811115612a11576000848401525b50505050565b60006002820490506001821680612a2f57607f821691505b60208210811415612a4357612a42612b52565b5b50919050565b612a5282612bf3565b810181811067ffffffffffffffff82111715612a7157612a70612bb0565b5b80604052505050565b6000612a85826129cb565b91507fffffffffffffffffffffffffffffffffffffffffffffffffffffffffffffffff821415612ab857612ab7612af4565b5b600182019050919050565b6000612ace826129cb565b9150612ad9836129cb565b925082612ae957612ae8612b23565b5b828206905092915050565b7f4e487b7100000000000000000000000000000000000000000000000000000000600052601160045260246000fd5b7f4e487b7100000000000000000000000000000000000000000000000000000000600052601260045260246000fd5b7f4e487b7100000000000000000000000000000000000000000000000000000000600052602260045260246000fd5b7f4e487b7100000000000000000000000000000000000000000000000000000000600052603260045260246000fd5b7f4e487b7100000000000000000000000000000000000000000000000000000000600052604160045260246000fd5b600080fd5b600080fd5b600080fd5b600080fd5b6000601f19601f8301169050919050565b7f4552433732313a207472616e7366657220746f206e6f6e20455243373231526560008201527f63656976657220696d706c656d656e7465720000000000000000000000000000602082015250565b7f4552433732313a207472616e736665722066726f6d20696e636f72726563742060008201527f6f776e6572000000000000000000000000000000000000000000000000000000602082015250565b7f4552433732313a20746f6b656e20616c7265616479206d696e74656400000000600082015250565b7f4552433732313a207472616e7366657220746f20746865207a65726f2061646460008201527f7265737300000000000000000000000000000000000000000000000000000000602082015250565b7f4552433732313a20617070726f766520746f2063616c6c657200000000000000600082015250565b7f4552433732313a2061646472657373207a65726f206973206e6f74206120766160008201527f6c6964206f776e65720000000000000000000000000000000000000000000000602082015250565b7f45524337323155524953746f726167653a2055524920736574206f66206e6f6e60008201527f6578697374656e7420746f6b656e000000000000000000000000000000000000602082015250565b7f4552433732313a20617070726f76652063616c6c6572206973206e6f7420746f60008201527f6b656e206f776e6572206e6f7220617070726f76656420666f7220616c6c0000602082015250565b7f4552433732313a206d696e7420746f20746865207a65726f2061646472657373600082015250565b7f4552433732313a20696e76616c696420746f6b656e2049440000000000000000600082015250565b7f4552433732313a20617070726f76616c20746f2063757272656e74206f776e6560008201527f7200000000000000000000000000000000000000000000000000000000000000602082015250565b7f4552433732313a2063616c6c6572206973206e6f7420746f6b656e206f776e6560008201527f72206e6f7220617070726f766564000000000000000000000000000000000000602082015250565b7f5265656e7472616e637947756172643a207265656e7472616e742063616c6c00600082015250565b612f5281612961565b8114612f5d57600080fd5b50565b612f6981612973565b8114612f7457600080fd5b50565b612f808161297f565b8114612f8b57600080fd5b50565b612f97816129cb565b8114612fa257600080fd5b5056fea2646970667358221220af7c4e490576e951cc1dffab1104f50f970898bcef960deebee9ccd7b63bc5a964736f6c63430008070033",
  "devdoc": {
    "kind": "dev",
    "methods": {
      "approve(address,uint256)": {
        "details": "See {IERC721-approve}."
      },
      "balanceOf(address)": {
        "details": "See {IERC721-balanceOf}."
      },
      "getApproved(uint256)": {
        "details": "See {IERC721-getApproved}."
      },
      "isApprovedForAll(address,address)": {
        "details": "See {IERC721-isApprovedForAll}."
      },
      "name()": {
        "details": "See {IERC721Metadata-name}."
      },
      "ownerOf(uint256)": {
        "details": "See {IERC721-ownerOf}."
      },
      "safeTransferFrom(address,address,uint256)": {
        "details": "See {IERC721-safeTransferFrom}."
      },
      "safeTransferFrom(address,address,uint256,bytes)": {
        "details": "See {IERC721-safeTransferFrom}."
      },
      "setApprovalForAll(address,bool)": {
        "details": "See {IERC721-setApprovalForAll}."
      },
      "supportsInterface(bytes4)": {
        "details": "See {IERC165-supportsInterface}."
      },
      "symbol()": {
        "details": "See {IERC721Metadata-symbol}."
      },
      "tokenURI(uint256)": {
        "details": "See {IERC721Metadata-tokenURI}."
      },
      "transferFrom(address,address,uint256)": {
        "details": "See {IERC721-transferFrom}."
      }
    },
    "version": 1
  },
  "userdoc": {
    "kind": "user",
    "methods": {
      "claimHealthCheck(uint256)": {
        "notice": "Claim health check off-chain      - Book health check      - Pay fee off-chain      - System confirm to blockchain (owner call this function)  Claim link  www.vajiraHealthCheckOrSomething.co.th"
      }
    },
    "version": 1
  },
  "storageLayout": {
    "storage": [
      {
        "astId": 143,
        "contract": "contracts/Vajira110.sol:Vajira110",
        "label": "_name",
        "offset": 0,
        "slot": "0",
        "type": "t_string_storage"
      },
      {
        "astId": 145,
        "contract": "contracts/Vajira110.sol:Vajira110",
        "label": "_symbol",
        "offset": 0,
        "slot": "1",
        "type": "t_string_storage"
      },
      {
        "astId": 149,
        "contract": "contracts/Vajira110.sol:Vajira110",
        "label": "_owners",
        "offset": 0,
        "slot": "2",
        "type": "t_mapping(t_uint256,t_address)"
      },
      {
        "astId": 153,
        "contract": "contracts/Vajira110.sol:Vajira110",
        "label": "_balances",
        "offset": 0,
        "slot": "3",
        "type": "t_mapping(t_address,t_uint256)"
      },
      {
        "astId": 157,
        "contract": "contracts/Vajira110.sol:Vajira110",
        "label": "_tokenApprovals",
        "offset": 0,
        "slot": "4",
        "type": "t_mapping(t_uint256,t_address)"
      },
      {
        "astId": 163,
        "contract": "contracts/Vajira110.sol:Vajira110",
        "label": "_operatorApprovals",
        "offset": 0,
        "slot": "5",
        "type": "t_mapping(t_address,t_mapping(t_address,t_bool))"
      },
      {
        "astId": 1131,
        "contract": "contracts/Vajira110.sol:Vajira110",
        "label": "_tokenURIs",
        "offset": 0,
        "slot": "6",
        "type": "t_mapping(t_uint256,t_string_storage)"
      },
      {
        "astId": 10,
        "contract": "contracts/Vajira110.sol:Vajira110",
        "label": "_status",
        "offset": 0,
        "slot": "7",
        "type": "t_uint256"
      },
      {
        "astId": 1948,
        "contract": "contracts/Vajira110.sol:Vajira110",
        "label": "_tokenIds",
        "offset": 0,
        "slot": "8",
        "type": "t_struct(Counter)1593_storage"
      },
      {
        "astId": 1950,
        "contract": "contracts/Vajira110.sol:Vajira110",
        "label": "i_baseTokenURI",
        "offset": 0,
        "slot": "9",
        "type": "t_string_storage"
      },
      {
        "astId": 1955,
        "contract": "contracts/Vajira110.sol:Vajira110",
        "label": "fullTokenURI",
        "offset": 0,
        "slot": "10",
        "type": "t_string_storage"
      },
      {
        "astId": 1966,
        "contract": "contracts/Vajira110.sol:Vajira110",
        "label": "claimedHealthCheck",
        "offset": 0,
        "slot": "11",
        "type": "t_mapping(t_uint256,t_bool)"
      }
    ],
    "types": {
      "t_address": {
        "encoding": "inplace",
        "label": "address",
        "numberOfBytes": "20"
      },
      "t_bool": {
        "encoding": "inplace",
        "label": "bool",
        "numberOfBytes": "1"
      },
      "t_mapping(t_address,t_bool)": {
        "encoding": "mapping",
        "key": "t_address",
        "label": "mapping(address => bool)",
        "numberOfBytes": "32",
        "value": "t_bool"
      },
      "t_mapping(t_address,t_mapping(t_address,t_bool))": {
        "encoding": "mapping",
        "key": "t_address",
        "label": "mapping(address => mapping(address => bool))",
        "numberOfBytes": "32",
        "value": "t_mapping(t_address,t_bool)"
      },
      "t_mapping(t_address,t_uint256)": {
        "encoding": "mapping",
        "key": "t_address",
        "label": "mapping(address => uint256)",
        "numberOfBytes": "32",
        "value": "t_uint256"
      },
      "t_mapping(t_uint256,t_address)": {
        "encoding": "mapping",
        "key": "t_uint256",
        "label": "mapping(uint256 => address)",
        "numberOfBytes": "32",
        "value": "t_address"
      },
      "t_mapping(t_uint256,t_bool)": {
        "encoding": "mapping",
        "key": "t_uint256",
        "label": "mapping(uint256 => bool)",
        "numberOfBytes": "32",
        "value": "t_bool"
      },
      "t_mapping(t_uint256,t_string_storage)": {
        "encoding": "mapping",
        "key": "t_uint256",
        "label": "mapping(uint256 => string)",
        "numberOfBytes": "32",
        "value": "t_string_storage"
      },
      "t_string_storage": {
        "encoding": "bytes",
        "label": "string",
        "numberOfBytes": "32"
      },
      "t_struct(Counter)1593_storage": {
        "encoding": "inplace",
        "label": "struct Counters.Counter",
        "members": [
          {
            "astId": 1592,
            "contract": "contracts/Vajira110.sol:Vajira110",
            "label": "_value",
            "offset": 0,
            "slot": "0",
            "type": "t_uint256"
          }
        ],
        "numberOfBytes": "32"
      },
      "t_uint256": {
        "encoding": "inplace",
        "label": "uint256",
        "numberOfBytes": "32"
      }
    }
  }
}