{
  "address": "0x63e939f12e1fd98B15A581C63101F783e83C1dB3",
  "abi": [
    {
      "inputs": [
        {
          "internalType": "string",
          "name": "_name",
          "type": "string"
        },
        {
          "internalType": "string",
          "name": "_symbol",
          "type": "string"
        },
        {
          "internalType": "string",
          "name": "_baseURI",
          "type": "string"
        },
        {
          "internalType": "uint256",
          "name": "_maxSupply",
          "type": "uint256"
        }
      ],
      "stateMutability": "nonpayable",
      "type": "constructor"
    },
    {
      "inputs": [],
      "name": "MaxSupplyExceeded",
      "type": "error"
    },
    {
      "inputs": [],
      "name": "NotEnoughMatic",
      "type": "error"
    },
    {
      "inputs": [],
      "name": "claimed",
      "type": "error"
    },
    {
      "anonymous": false,
      "inputs": [
        {
          "indexed": true,
          "internalType": "address",
          "name": "owner",
          "type": "address"
        },
        {
          "indexed": true,
          "internalType": "address",
          "name": "approved",
          "type": "address"
        },
        {
          "indexed": true,
          "internalType": "uint256",
          "name": "tokenId",
          "type": "uint256"
        }
      ],
      "name": "Approval",
      "type": "event"
    },
    {
      "anonymous": false,
      "inputs": [
        {
          "indexed": true,
          "internalType": "address",
          "name": "owner",
          "type": "address"
        },
        {
          "indexed": true,
          "internalType": "address",
          "name": "operator",
          "type": "address"
        },
        {
          "indexed": false,
          "internalType": "bool",
          "name": "approved",
          "type": "bool"
        }
      ],
      "name": "ApprovalForAll",
      "type": "event"
    },
    {
      "anonymous": false,
      "inputs": [
        {
          "indexed": true,
          "internalType": "address",
          "name": "previousOwner",
          "type": "address"
        },
        {
          "indexed": true,
          "internalType": "address",
          "name": "newOwner",
          "type": "address"
        }
      ],
      "name": "OwnershipTransferred",
      "type": "event"
    },
    {
      "anonymous": false,
      "inputs": [
        {
          "indexed": true,
          "internalType": "address",
          "name": "from",
          "type": "address"
        },
        {
          "indexed": true,
          "internalType": "address",
          "name": "to",
          "type": "address"
        },
        {
          "indexed": true,
          "internalType": "uint256",
          "name": "tokenId",
          "type": "uint256"
        }
      ],
      "name": "Transfer",
      "type": "event"
    },
    {
      "inputs": [],
      "name": "Withdraw",
      "outputs": [],
      "stateMutability": "nonpayable",
      "type": "function"
    },
    {
      "inputs": [
        {
          "internalType": "address",
          "name": "to",
          "type": "address"
        },
        {
          "internalType": "uint256",
          "name": "tokenId",
          "type": "uint256"
        }
      ],
      "name": "approve",
      "outputs": [],
      "stateMutability": "nonpayable",
      "type": "function"
    },
    {
      "inputs": [
        {
          "internalType": "address",
          "name": "owner",
          "type": "address"
        }
      ],
      "name": "balanceOf",
      "outputs": [
        {
          "internalType": "uint256",
          "name": "",
          "type": "uint256"
        }
      ],
      "stateMutability": "view",
      "type": "function"
    },
    {
      "inputs": [
        {
          "internalType": "uint256",
          "name": "_tokenIdClaim",
          "type": "uint256"
        }
      ],
      "name": "claimHealthCheck",
      "outputs": [],
      "stateMutability": "nonpayable",
      "type": "function"
    },
    {
      "inputs": [
        {
          "internalType": "uint256",
          "name": "tokenId",
          "type": "uint256"
        }
      ],
      "name": "getApproved",
      "outputs": [
        {
          "internalType": "address",
          "name": "",
          "type": "address"
        }
      ],
      "stateMutability": "view",
      "type": "function"
    },
    {
      "inputs": [],
      "name": "getMaxSupply",
      "outputs": [
        {
          "internalType": "uint256",
          "name": "",
          "type": "uint256"
        }
      ],
      "stateMutability": "view",
      "type": "function"
    },
    {
      "inputs": [],
      "name": "getOwner",
      "outputs": [
        {
          "internalType": "address",
          "name": "",
          "type": "address"
        }
      ],
      "stateMutability": "view",
      "type": "function"
    },
    {
      "inputs": [],
      "name": "getPrice",
      "outputs": [
        {
          "internalType": "uint256",
          "name": "",
          "type": "uint256"
        }
      ],
      "stateMutability": "pure",
      "type": "function"
    },
    {
      "inputs": [],
      "name": "i_baseTokenURI",
      "outputs": [
        {
          "internalType": "string",
          "name": "",
          "type": "string"
        }
      ],
      "stateMutability": "view",
      "type": "function"
    },
    {
      "inputs": [
        {
          "internalType": "address",
          "name": "owner",
          "type": "address"
        },
        {
          "internalType": "address",
          "name": "operator",
          "type": "address"
        }
      ],
      "name": "isApprovedForAll",
      "outputs": [
        {
          "internalType": "bool",
          "name": "",
          "type": "bool"
        }
      ],
      "stateMutability": "view",
      "type": "function"
    },
    {
      "inputs": [],
      "name": "mint",
      "outputs": [],
      "stateMutability": "payable",
      "type": "function"
    },
    {
      "inputs": [],
      "name": "name",
      "outputs": [
        {
          "internalType": "string",
          "name": "",
          "type": "string"
        }
      ],
      "stateMutability": "view",
      "type": "function"
    },
    {
      "inputs": [],
      "name": "owner",
      "outputs": [
        {
          "internalType": "address",
          "name": "",
          "type": "address"
        }
      ],
      "stateMutability": "view",
      "type": "function"
    },
    {
      "inputs": [
        {
          "internalType": "uint256",
          "name": "tokenId",
          "type": "uint256"
        }
      ],
      "name": "ownerOf",
      "outputs": [
        {
          "internalType": "address",
          "name": "",
          "type": "address"
        }
      ],
      "stateMutability": "view",
      "type": "function"
    },
    {
      "inputs": [],
      "name": "renounceOwnership",
      "outputs": [],
      "stateMutability": "nonpayable",
      "type": "function"
    },
    {
      "inputs": [
        {
          "internalType": "address",
          "name": "from",
          "type": "address"
        },
        {
          "internalType": "address",
          "name": "to",
          "type": "address"
        },
        {
          "internalType": "uint256",
          "name": "tokenId",
          "type": "uint256"
        }
      ],
      "name": "safeTransferFrom",
      "outputs": [],
      "stateMutability": "nonpayable",
      "type": "function"
    },
    {
      "inputs": [
        {
          "internalType": "address",
          "name": "from",
          "type": "address"
        },
        {
          "internalType": "address",
          "name": "to",
          "type": "address"
        },
        {
          "internalType": "uint256",
          "name": "tokenId",
          "type": "uint256"
        },
        {
          "internalType": "bytes",
          "name": "data",
          "type": "bytes"
        }
      ],
      "name": "safeTransferFrom",
      "outputs": [],
      "stateMutability": "nonpayable",
      "type": "function"
    },
    {
      "inputs": [
        {
          "internalType": "address",
          "name": "operator",
          "type": "address"
        },
        {
          "internalType": "bool",
          "name": "approved",
          "type": "bool"
        }
      ],
      "name": "setApprovalForAll",
      "outputs": [],
      "stateMutability": "nonpayable",
      "type": "function"
    },
    {
      "inputs": [
        {
          "internalType": "bytes4",
          "name": "interfaceId",
          "type": "bytes4"
        }
      ],
      "name": "supportsInterface",
      "outputs": [
        {
          "internalType": "bool",
          "name": "",
          "type": "bool"
        }
      ],
      "stateMutability": "view",
      "type": "function"
    },
    {
      "inputs": [],
      "name": "symbol",
      "outputs": [
        {
          "internalType": "string",
          "name": "",
          "type": "string"
        }
      ],
      "stateMutability": "view",
      "type": "function"
    },
    {
      "inputs": [
        {
          "internalType": "uint256",
          "name": "tokenId",
          "type": "uint256"
        }
      ],
      "name": "tokenURI",
      "outputs": [
        {
          "internalType": "string",
          "name": "",
          "type": "string"
        }
      ],
      "stateMutability": "view",
      "type": "function"
    },
    {
      "inputs": [
        {
          "internalType": "address",
          "name": "from",
          "type": "address"
        },
        {
          "internalType": "address",
          "name": "to",
          "type": "address"
        },
        {
          "internalType": "uint256",
          "name": "tokenId",
          "type": "uint256"
        }
      ],
      "name": "transferFrom",
      "outputs": [],
      "stateMutability": "nonpayable",
      "type": "function"
    },
    {
      "inputs": [
        {
          "internalType": "address",
          "name": "newOwner",
          "type": "address"
        }
      ],
      "name": "transferOwnership",
      "outputs": [],
      "stateMutability": "nonpayable",
      "type": "function"
    }
  ],
  "transactionHash": "0x6e8dfba9caa998895a559954e3fdfd510f121ea0a2489e94e7bfa68a59fa7275",
  "args": [
    "Vajira110",
    "VJR110",
    "ipfs://Qmc2Cq59FDMvCj54jVwx2zeNRftSdNRKtCm4pUaJDVh3Ns/",
    "1000"
  ],
  "numDeployments": 2,
  "solcInputHash": "d340d9c67bb6e533f7074e6547cf482a",
  "bytecode": "0x60c06040523480156200001157600080fd5b50604051620033c5380380620033c583398181016040528101906200003791906200030a565b8383816000908051906020019062000051929190620001c5565b5080600190805190602001906200006a929190620001c5565b50505060016007819055506200009562000089620000f760201b60201c565b620000ff60201b60201c565b3373ffffffffffffffffffffffffffffffffffffffff1660808173ffffffffffffffffffffffffffffffffffffffff1660601b8152505081600a9080519060200190620000e4929190620001c5565b508060a081815250505050505062000581565b600033905090565b6000600860009054906101000a900473ffffffffffffffffffffffffffffffffffffffff16905081600860006101000a81548173ffffffffffffffffffffffffffffffffffffffff021916908373ffffffffffffffffffffffffffffffffffffffff1602179055508173ffffffffffffffffffffffffffffffffffffffff168173ffffffffffffffffffffffffffffffffffffffff167f8be0079c531659141344cd1fd0a4f28419497f9722a3daafe3b4186f6b6457e060405160405180910390a35050565b828054620001d39062000478565b90600052602060002090601f016020900481019282620001f7576000855562000243565b82601f106200021257805160ff191683800117855562000243565b8280016001018555821562000243579182015b828111156200024257825182559160200191906001019062000225565b5b50905062000252919062000256565b5090565b5b808211156200027157600081600090555060010162000257565b5090565b60006200028c620002868462000402565b620003d9565b905082815260208101848484011115620002ab57620002aa62000547565b5b620002b884828562000442565b509392505050565b600082601f830112620002d857620002d762000542565b5b8151620002ea84826020860162000275565b91505092915050565b600081519050620003048162000567565b92915050565b6000806000806080858703121562000327576200032662000551565b5b600085015167ffffffffffffffff8111156200034857620003476200054c565b5b6200035687828801620002c0565b945050602085015167ffffffffffffffff8111156200037a57620003796200054c565b5b6200038887828801620002c0565b935050604085015167ffffffffffffffff811115620003ac57620003ab6200054c565b5b620003ba87828801620002c0565b9250506060620003cd87828801620002f3565b91505092959194509250565b6000620003e5620003f8565b9050620003f38282620004ae565b919050565b6000604051905090565b600067ffffffffffffffff82111562000420576200041f62000513565b5b6200042b8262000556565b9050602081019050919050565b6000819050919050565b60005b838110156200046257808201518184015260208101905062000445565b8381111562000472576000848401525b50505050565b600060028204905060018216806200049157607f821691505b60208210811415620004a857620004a7620004e4565b5b50919050565b620004b98262000556565b810181811067ffffffffffffffff82111715620004db57620004da62000513565b5b80604052505050565b7f4e487b7100000000000000000000000000000000000000000000000000000000600052602260045260246000fd5b7f4e487b7100000000000000000000000000000000000000000000000000000000600052604160045260246000fd5b600080fd5b600080fd5b600080fd5b600080fd5b6000601f19601f8301169050919050565b620005728162000438565b81146200057e57600080fd5b50565b60805160601c60a051612e14620005b16000396000818161084d01526109ed01526000610c400152612e146000f3fe6080604052600436106101405760003560e01c806370a08231116100b6578063a22cb4651161006f578063a22cb46514610417578063a9bbfbd114610440578063b88d4fde1461046b578063c87b56dd14610494578063e985e9c5146104d1578063f2fde38b1461050e57610140565b806370a0823114610317578063715018a614610354578063893d20e81461036b5780638da5cb5b1461039657806395d89b41146103c157806398d5fdca146103ec57610140565b806323b872dd1161010857806323b872dd1461021d57806333a62a0a1461024657806342842e0e1461026f5780634c0f38c21461029857806357ea89b6146102c35780636352211e146102da57610140565b806301ffc9a71461014557806306fdde0314610182578063081812fc146101ad578063095ea7b3146101ea5780631249c58b14610213575b600080fd5b34801561015157600080fd5b5061016c60048036038101906101679190611f98565b610537565b60405161017991906123f0565b60405180910390f35b34801561018e57600080fd5b50610197610619565b6040516101a4919061240b565b60405180910390f35b3480156101b957600080fd5b506101d460048036038101906101cf9190611ff2565b6106ab565b6040516101e19190612389565b60405180910390f35b3480156101f657600080fd5b50610211600480360381019061020c9190611f58565b6106f1565b005b61021b610809565b005b34801561022957600080fd5b50610244600480360381019061023f9190611e42565b6108d3565b005b34801561025257600080fd5b5061026d60048036038101906102689190611ff2565b610933565b005b34801561027b57600080fd5b5061029660048036038101906102919190611e42565b6109c9565b005b3480156102a457600080fd5b506102ad6109e9565b6040516102ba91906125ed565b60405180910390f35b3480156102cf57600080fd5b506102d8610a11565b005b3480156102e657600080fd5b5061030160048036038101906102fc9190611ff2565b610abe565b60405161030e9190612389565b60405180910390f35b34801561032357600080fd5b5061033e60048036038101906103399190611dd5565b610b70565b60405161034b91906125ed565b60405180910390f35b34801561036057600080fd5b50610369610c28565b005b34801561037757600080fd5b50610380610c3c565b60405161038d9190612389565b60405180910390f35b3480156103a257600080fd5b506103ab610c64565b6040516103b89190612389565b60405180910390f35b3480156103cd57600080fd5b506103d6610c8e565b6040516103e3919061240b565b60405180910390f35b3480156103f857600080fd5b50610401610d20565b60405161040e91906125ed565b60405180910390f35b34801561042357600080fd5b5061043e60048036038101906104399190611f18565b610d30565b005b34801561044c57600080fd5b50610455610d46565b604051610462919061240b565b60405180910390f35b34801561047757600080fd5b50610492600480360381019061048d9190611e95565b610dd4565b005b3480156104a057600080fd5b506104bb60048036038101906104b69190611ff2565b610e36565b6040516104c8919061240b565b60405180910390f35b3480156104dd57600080fd5b506104f860048036038101906104f39190611e02565b610ed6565b60405161050591906123f0565b60405180910390f35b34801561051a57600080fd5b5061053560048036038101906105309190611dd5565b610f6a565b005b60007f80ac58cd000000000000000000000000000000000000000000000000000000007bffffffffffffffffffffffffffffffffffffffffffffffffffffffff1916827bffffffffffffffffffffffffffffffffffffffffffffffffffffffff1916148061060257507f5b5e139f000000000000000000000000000000000000000000000000000000007bffffffffffffffffffffffffffffffffffffffffffffffffffffffff1916827bffffffffffffffffffffffffffffffffffffffffffffffffffffffff1916145b80610612575061061182610fee565b5b9050919050565b60606000805461062890612827565b80601f016020809104026020016040519081016040528092919081815260200182805461065490612827565b80156106a15780601f10610676576101008083540402835291602001916106a1565b820191906000526020600020905b81548152906001019060200180831161068457829003601f168201915b5050505050905090565b60006106b682611058565b6004600083815260200190815260200160002060009054906101000a900473ffffffffffffffffffffffffffffffffffffffff169050919050565b60006106fc82610abe565b90508073ffffffffffffffffffffffffffffffffffffffff168373ffffffffffffffffffffffffffffffffffffffff16141561076d576040517f08c379a00000000000000000000000000000000000000000000000000000000081526004016107649061258d565b60405180910390fd5b8073ffffffffffffffffffffffffffffffffffffffff1661078c6110a3565b73ffffffffffffffffffffffffffffffffffffffff1614806107bb57506107ba816107b56110a3565b610ed6565b5b6107fa576040517f08c379a00000000000000000000000000000000000000000000000000000000081526004016107f19061250d565b60405180910390fd5b61080483836110ab565b505050565b67010a741a4627800034101561084b576040517fd6b6ab9900000000000000000000000000000000000000000000000000000000815260040160405180910390fd5b7f00000000000000000000000000000000000000000000000000000000000000006108766009611164565b14156108ae576040517f8a164f6300000000000000000000000000000000000000000000000000000000815260040160405180910390fd5b60006108ba6009611164565b90506108c63382611172565b6108d0600961134c565b50565b6108e46108de6110a3565b82611362565b610923576040517f08c379a000000000000000000000000000000000000000000000000000000000815260040161091a906125ad565b60405180910390fd5b61092e8383836113f7565b505050565b61093b61165e565b60011515600b600083815260200190815260200160002060009054906101000a900460ff161515141561099a576040517fe834a83400000000000000000000000000000000000000000000000000000000815260040160405180910390fd5b6001600b600083815260200190815260200160002060006101000a81548160ff02191690831515021790555050565b6109e483838360405180602001604052806000815250610dd4565b505050565b60007f0000000000000000000000000000000000000000000000000000000000000000905090565b60026007541415610a57576040517f08c379a0000000000000000000000000000000000000000000000000000000008152600401610a4e906125cd565b60405180910390fd5b6002600781905550610a6761165e565b60004790503373ffffffffffffffffffffffffffffffffffffffff166108fc829081150290604051600060405180830381858888f19350505050158015610ab2573d6000803e3d6000fd5b50506001600781905550565b6000806002600084815260200190815260200160002060009054906101000a900473ffffffffffffffffffffffffffffffffffffffff169050600073ffffffffffffffffffffffffffffffffffffffff168173ffffffffffffffffffffffffffffffffffffffff161415610b67576040517f08c379a0000000000000000000000000000000000000000000000000000000008152600401610b5e9061256d565b60405180910390fd5b80915050919050565b60008073ffffffffffffffffffffffffffffffffffffffff168273ffffffffffffffffffffffffffffffffffffffff161415610be1576040517f08c379a0000000000000000000000000000000000000000000000000000000008152600401610bd8906124ed565b60405180910390fd5b600360008373ffffffffffffffffffffffffffffffffffffffff1673ffffffffffffffffffffffffffffffffffffffff168152602001908152602001600020549050919050565b610c3061165e565b610c3a60006116dc565b565b60007f0000000000000000000000000000000000000000000000000000000000000000905090565b6000600860009054906101000a900473ffffffffffffffffffffffffffffffffffffffff16905090565b606060018054610c9d90612827565b80601f0160208091040260200160405190810160405280929190818152602001828054610cc990612827565b8015610d165780601f10610ceb57610100808354040283529160200191610d16565b820191906000526020600020905b815481529060010190602001808311610cf957829003601f168201915b5050505050905090565b600067010a741a46278000905090565b610d42610d3b6110a3565b83836117a2565b5050565b600a8054610d5390612827565b80601f0160208091040260200160405190810160405280929190818152602001828054610d7f90612827565b8015610dcc5780601f10610da157610100808354040283529160200191610dcc565b820191906000526020600020905b815481529060010190602001808311610daf57829003601f168201915b505050505081565b610de5610ddf6110a3565b83611362565b610e24576040517f08c379a0000000000000000000000000000000000000000000000000000000008152600401610e1b906125ad565b60405180910390fd5b610e308484848461190f565b50505050565b6060610e4182611058565b6000600a8054610e5090612827565b905011610e6c5760405180602001604052806000815250610ecf565b600a610e778361196b565b6040518060400160405280600581526020017f2e6a736f6e000000000000000000000000000000000000000000000000000000815250604051602001610ebf93929190612358565b6040516020818303038152906040525b9050919050565b6000600560008473ffffffffffffffffffffffffffffffffffffffff1673ffffffffffffffffffffffffffffffffffffffff16815260200190815260200160002060008373ffffffffffffffffffffffffffffffffffffffff1673ffffffffffffffffffffffffffffffffffffffff16815260200190815260200160002060009054906101000a900460ff16905092915050565b610f7261165e565b600073ffffffffffffffffffffffffffffffffffffffff168173ffffffffffffffffffffffffffffffffffffffff161415610fe2576040517f08c379a0000000000000000000000000000000000000000000000000000000008152600401610fd99061244d565b60405180910390fd5b610feb816116dc565b50565b60007f01ffc9a7000000000000000000000000000000000000000000000000000000007bffffffffffffffffffffffffffffffffffffffffffffffffffffffff1916827bffffffffffffffffffffffffffffffffffffffffffffffffffffffff1916149050919050565b61106181611acc565b6110a0576040517f08c379a00000000000000000000000000000000000000000000000000000000081526004016110979061256d565b60405180910390fd5b50565b600033905090565b816004600083815260200190815260200160002060006101000a81548173ffffffffffffffffffffffffffffffffffffffff021916908373ffffffffffffffffffffffffffffffffffffffff160217905550808273ffffffffffffffffffffffffffffffffffffffff1661111e83610abe565b73ffffffffffffffffffffffffffffffffffffffff167f8c5be1e5ebec7d5bd14f71427d1e84f3dd0314c0f7b2291e5b200ac8c7c3b92560405160405180910390a45050565b600081600001549050919050565b600073ffffffffffffffffffffffffffffffffffffffff168273ffffffffffffffffffffffffffffffffffffffff1614156111e2576040517f08c379a00000000000000000000000000000000000000000000000000000000081526004016111d99061252d565b60405180910390fd5b6111eb81611acc565b1561122b576040517f08c379a00000000000000000000000000000000000000000000000000000000081526004016112229061248d565b60405180910390fd5b61123760008383611b38565b6001600360008473ffffffffffffffffffffffffffffffffffffffff1673ffffffffffffffffffffffffffffffffffffffff168152602001908152602001600020600082825461128791906126b6565b92505081905550816002600083815260200190815260200160002060006101000a81548173ffffffffffffffffffffffffffffffffffffffff021916908373ffffffffffffffffffffffffffffffffffffffff160217905550808273ffffffffffffffffffffffffffffffffffffffff16600073ffffffffffffffffffffffffffffffffffffffff167fddf252ad1be2c89b69c2b068fc378daa952ba7f163c4a11628f55a4df523b3ef60405160405180910390a461134860008383611b3d565b5050565b6001816000016000828254019250508190555050565b60008061136e83610abe565b90508073ffffffffffffffffffffffffffffffffffffffff168473ffffffffffffffffffffffffffffffffffffffff1614806113b057506113af8185610ed6565b5b806113ee57508373ffffffffffffffffffffffffffffffffffffffff166113d6846106ab565b73ffffffffffffffffffffffffffffffffffffffff16145b91505092915050565b8273ffffffffffffffffffffffffffffffffffffffff1661141782610abe565b73ffffffffffffffffffffffffffffffffffffffff161461146d576040517f08c379a00000000000000000000000000000000000000000000000000000000081526004016114649061246d565b60405180910390fd5b600073ffffffffffffffffffffffffffffffffffffffff168273ffffffffffffffffffffffffffffffffffffffff1614156114dd576040517f08c379a00000000000000000000000000000000000000000000000000000000081526004016114d4906124ad565b60405180910390fd5b6114e8838383611b38565b6114f36000826110ab565b6001600360008573ffffffffffffffffffffffffffffffffffffffff1673ffffffffffffffffffffffffffffffffffffffff1681526020019081526020016000206000828254611543919061273d565b925050819055506001600360008473ffffffffffffffffffffffffffffffffffffffff1673ffffffffffffffffffffffffffffffffffffffff168152602001908152602001600020600082825461159a91906126b6565b92505081905550816002600083815260200190815260200160002060006101000a81548173ffffffffffffffffffffffffffffffffffffffff021916908373ffffffffffffffffffffffffffffffffffffffff160217905550808273ffffffffffffffffffffffffffffffffffffffff168473ffffffffffffffffffffffffffffffffffffffff167fddf252ad1be2c89b69c2b068fc378daa952ba7f163c4a11628f55a4df523b3ef60405160405180910390a4611659838383611b3d565b505050565b6116666110a3565b73ffffffffffffffffffffffffffffffffffffffff16611684610c64565b73ffffffffffffffffffffffffffffffffffffffff16146116da576040517f08c379a00000000000000000000000000000000000000000000000000000000081526004016116d19061254d565b60405180910390fd5b565b6000600860009054906101000a900473ffffffffffffffffffffffffffffffffffffffff16905081600860006101000a81548173ffffffffffffffffffffffffffffffffffffffff021916908373ffffffffffffffffffffffffffffffffffffffff1602179055508173ffffffffffffffffffffffffffffffffffffffff168173ffffffffffffffffffffffffffffffffffffffff167f8be0079c531659141344cd1fd0a4f28419497f9722a3daafe3b4186f6b6457e060405160405180910390a35050565b8173ffffffffffffffffffffffffffffffffffffffff168373ffffffffffffffffffffffffffffffffffffffff161415611811576040517f08c379a0000000000000000000000000000000000000000000000000000000008152600401611808906124cd565b60405180910390fd5b80600560008573ffffffffffffffffffffffffffffffffffffffff1673ffffffffffffffffffffffffffffffffffffffff16815260200190815260200160002060008473ffffffffffffffffffffffffffffffffffffffff1673ffffffffffffffffffffffffffffffffffffffff16815260200190815260200160002060006101000a81548160ff0219169083151502179055508173ffffffffffffffffffffffffffffffffffffffff168373ffffffffffffffffffffffffffffffffffffffff167f17307eab39ab6107e8899845ad3d59bd9653f200f220920489ca2b5937696c318360405161190291906123f0565b60405180910390a3505050565b61191a8484846113f7565b61192684848484611b42565b611965576040517f08c379a000000000000000000000000000000000000000000000000000000000815260040161195c9061242d565b60405180910390fd5b50505050565b606060008214156119b3576040518060400160405280600181526020017f30000000000000000000000000000000000000000000000000000000000000008152509050611ac7565b600082905060005b600082146119e55780806119ce9061288a565b915050600a826119de919061270c565b91506119bb565b60008167ffffffffffffffff811115611a0157611a006129c0565b5b6040519080825280601f01601f191660200182016040528015611a335781602001600182028036833780820191505090505b5090505b60008514611ac057600182611a4c919061273d565b9150600a85611a5b91906128d3565b6030611a6791906126b6565b60f81b818381518110611a7d57611a7c612991565b5b60200101907effffffffffffffffffffffffffffffffffffffffffffffffffffffffffffff1916908160001a905350600a85611ab9919061270c565b9450611a37565b8093505050505b919050565b60008073ffffffffffffffffffffffffffffffffffffffff166002600084815260200190815260200160002060009054906101000a900473ffffffffffffffffffffffffffffffffffffffff1673ffffffffffffffffffffffffffffffffffffffff1614159050919050565b505050565b505050565b6000611b638473ffffffffffffffffffffffffffffffffffffffff16611cd9565b15611ccc578373ffffffffffffffffffffffffffffffffffffffff1663150b7a02611b8c6110a3565b8786866040518563ffffffff1660e01b8152600401611bae94939291906123a4565b602060405180830381600087803b158015611bc857600080fd5b505af1925050508015611bf957506040513d601f19601f82011682018060405250810190611bf69190611fc5565b60015b611c7c573d8060008114611c29576040519150601f19603f3d011682016040523d82523d6000602084013e611c2e565b606091505b50600081511415611c74576040517f08c379a0000000000000000000000000000000000000000000000000000000008152600401611c6b9061242d565b60405180910390fd5b805181602001fd5b63150b7a0260e01b7bffffffffffffffffffffffffffffffffffffffffffffffffffffffff1916817bffffffffffffffffffffffffffffffffffffffffffffffffffffffff191614915050611cd1565b600190505b949350505050565b6000808273ffffffffffffffffffffffffffffffffffffffff163b119050919050565b6000611d0f611d0a8461262d565b612608565b905082815260208101848484011115611d2b57611d2a6129f4565b5b611d368482856127e5565b509392505050565b600081359050611d4d81612d82565b92915050565b600081359050611d6281612d99565b92915050565b600081359050611d7781612db0565b92915050565b600081519050611d8c81612db0565b92915050565b600082601f830112611da757611da66129ef565b5b8135611db7848260208601611cfc565b91505092915050565b600081359050611dcf81612dc7565b92915050565b600060208284031215611deb57611dea6129fe565b5b6000611df984828501611d3e565b91505092915050565b60008060408385031215611e1957611e186129fe565b5b6000611e2785828601611d3e565b9250506020611e3885828601611d3e565b9150509250929050565b600080600060608486031215611e5b57611e5a6129fe565b5b6000611e6986828701611d3e565b9350506020611e7a86828701611d3e565b9250506040611e8b86828701611dc0565b9150509250925092565b60008060008060808587031215611eaf57611eae6129fe565b5b6000611ebd87828801611d3e565b9450506020611ece87828801611d3e565b9350506040611edf87828801611dc0565b925050606085013567ffffffffffffffff811115611f0057611eff6129f9565b5b611f0c87828801611d92565b91505092959194509250565b60008060408385031215611f2f57611f2e6129fe565b5b6000611f3d85828601611d3e565b9250506020611f4e85828601611d53565b9150509250929050565b60008060408385031215611f6f57611f6e6129fe565b5b6000611f7d85828601611d3e565b9250506020611f8e85828601611dc0565b9150509250929050565b600060208284031215611fae57611fad6129fe565b5b6000611fbc84828501611d68565b91505092915050565b600060208284031215611fdb57611fda6129fe565b5b6000611fe984828501611d7d565b91505092915050565b600060208284031215612008576120076129fe565b5b600061201684828501611dc0565b91505092915050565b61202881612771565b82525050565b61203781612783565b82525050565b600061204882612673565b6120528185612689565b93506120628185602086016127f4565b61206b81612a03565b840191505092915050565b60006120818261267e565b61208b818561269a565b935061209b8185602086016127f4565b6120a481612a03565b840191505092915050565b60006120ba8261267e565b6120c481856126ab565b93506120d48185602086016127f4565b80840191505092915050565b600081546120ed81612827565b6120f781866126ab565b94506001821660008114612112576001811461212357612156565b60ff19831686528186019350612156565b61212c8561265e565b60005b8381101561214e5781548189015260018201915060208101905061212f565b838801955050505b50505092915050565b600061216c60328361269a565b915061217782612a14565b604082019050919050565b600061218f60268361269a565b915061219a82612a63565b604082019050919050565b60006121b260258361269a565b91506121bd82612ab2565b604082019050919050565b60006121d5601c8361269a565b91506121e082612b01565b602082019050919050565b60006121f860248361269a565b915061220382612b2a565b604082019050919050565b600061221b60198361269a565b915061222682612b79565b602082019050919050565b600061223e60298361269a565b915061224982612ba2565b604082019050919050565b6000612261603e8361269a565b915061226c82612bf1565b604082019050919050565b600061228460208361269a565b915061228f82612c40565b602082019050919050565b60006122a760208361269a565b91506122b282612c69565b602082019050919050565b60006122ca60188361269a565b91506122d582612c92565b602082019050919050565b60006122ed60218361269a565b91506122f882612cbb565b604082019050919050565b6000612310602e8361269a565b915061231b82612d0a565b604082019050919050565b6000612333601f8361269a565b915061233e82612d59565b602082019050919050565b612352816127db565b82525050565b600061236482866120e0565b915061237082856120af565b915061237c82846120af565b9150819050949350505050565b600060208201905061239e600083018461201f565b92915050565b60006080820190506123b9600083018761201f565b6123c6602083018661201f565b6123d36040830185612349565b81810360608301526123e5818461203d565b905095945050505050565b6000602082019050612405600083018461202e565b92915050565b600060208201905081810360008301526124258184612076565b905092915050565b600060208201905081810360008301526124468161215f565b9050919050565b6000602082019050818103600083015261246681612182565b9050919050565b60006020820190508181036000830152612486816121a5565b9050919050565b600060208201905081810360008301526124a6816121c8565b9050919050565b600060208201905081810360008301526124c6816121eb565b9050919050565b600060208201905081810360008301526124e68161220e565b9050919050565b6000602082019050818103600083015261250681612231565b9050919050565b6000602082019050818103600083015261252681612254565b9050919050565b6000602082019050818103600083015261254681612277565b9050919050565b600060208201905081810360008301526125668161229a565b9050919050565b60006020820190508181036000830152612586816122bd565b9050919050565b600060208201905081810360008301526125a6816122e0565b9050919050565b600060208201905081810360008301526125c681612303565b9050919050565b600060208201905081810360008301526125e681612326565b9050919050565b60006020820190506126026000830184612349565b92915050565b6000612612612623565b905061261e8282612859565b919050565b6000604051905090565b600067ffffffffffffffff821115612648576126476129c0565b5b61265182612a03565b9050602081019050919050565b60008190508160005260206000209050919050565b600081519050919050565b600081519050919050565b600082825260208201905092915050565b600082825260208201905092915050565b600081905092915050565b60006126c1826127db565b91506126cc836127db565b9250827fffffffffffffffffffffffffffffffffffffffffffffffffffffffffffffffff0382111561270157612700612904565b5b828201905092915050565b6000612717826127db565b9150612722836127db565b92508261273257612731612933565b5b828204905092915050565b6000612748826127db565b9150612753836127db565b92508282101561276657612765612904565b5b828203905092915050565b600061277c826127bb565b9050919050565b60008115159050919050565b60007fffffffff0000000000000000000000000000000000000000000000000000000082169050919050565b600073ffffffffffffffffffffffffffffffffffffffff82169050919050565b6000819050919050565b82818337600083830152505050565b60005b838110156128125780820151818401526020810190506127f7565b83811115612821576000848401525b50505050565b6000600282049050600182168061283f57607f821691505b6020821081141561285357612852612962565b5b50919050565b61286282612a03565b810181811067ffffffffffffffff82111715612881576128806129c0565b5b80604052505050565b6000612895826127db565b91507fffffffffffffffffffffffffffffffffffffffffffffffffffffffffffffffff8214156128c8576128c7612904565b5b600182019050919050565b60006128de826127db565b91506128e9836127db565b9250826128f9576128f8612933565b5b828206905092915050565b7f4e487b7100000000000000000000000000000000000000000000000000000000600052601160045260246000fd5b7f4e487b7100000000000000000000000000000000000000000000000000000000600052601260045260246000fd5b7f4e487b7100000000000000000000000000000000000000000000000000000000600052602260045260246000fd5b7f4e487b7100000000000000000000000000000000000000000000000000000000600052603260045260246000fd5b7f4e487b7100000000000000000000000000000000000000000000000000000000600052604160045260246000fd5b600080fd5b600080fd5b600080fd5b600080fd5b6000601f19601f8301169050919050565b7f4552433732313a207472616e7366657220746f206e6f6e20455243373231526560008201527f63656976657220696d706c656d656e7465720000000000000000000000000000602082015250565b7f4f776e61626c653a206e6577206f776e657220697320746865207a65726f206160008201527f6464726573730000000000000000000000000000000000000000000000000000602082015250565b7f4552433732313a207472616e736665722066726f6d20696e636f72726563742060008201527f6f776e6572000000000000000000000000000000000000000000000000000000602082015250565b7f4552433732313a20746f6b656e20616c7265616479206d696e74656400000000600082015250565b7f4552433732313a207472616e7366657220746f20746865207a65726f2061646460008201527f7265737300000000000000000000000000000000000000000000000000000000602082015250565b7f4552433732313a20617070726f766520746f2063616c6c657200000000000000600082015250565b7f4552433732313a2061646472657373207a65726f206973206e6f74206120766160008201527f6c6964206f776e65720000000000000000000000000000000000000000000000602082015250565b7f4552433732313a20617070726f76652063616c6c6572206973206e6f7420746f60008201527f6b656e206f776e6572206e6f7220617070726f76656420666f7220616c6c0000602082015250565b7f4552433732313a206d696e7420746f20746865207a65726f2061646472657373600082015250565b7f4f776e61626c653a2063616c6c6572206973206e6f7420746865206f776e6572600082015250565b7f4552433732313a20696e76616c696420746f6b656e2049440000000000000000600082015250565b7f4552433732313a20617070726f76616c20746f2063757272656e74206f776e6560008201527f7200000000000000000000000000000000000000000000000000000000000000602082015250565b7f4552433732313a2063616c6c6572206973206e6f7420746f6b656e206f776e6560008201527f72206e6f7220617070726f766564000000000000000000000000000000000000602082015250565b7f5265656e7472616e637947756172643a207265656e7472616e742063616c6c00600082015250565b612d8b81612771565b8114612d9657600080fd5b50565b612da281612783565b8114612dad57600080fd5b50565b612db98161278f565b8114612dc457600080fd5b50565b612dd0816127db565b8114612ddb57600080fd5b5056fea26469706673582212208817a5d5737359cbb2032a268e4aa2c5f5e22a8d6636623bbec40c95f7c9a80b64736f6c63430008070033",
  "devdoc": {
    "kind": "dev",
    "methods": {
      "approve(address,uint256)": {
        "details": "See {IERC721-approve}."
      },
      "balanceOf(address)": {
        "details": "See {IERC721-balanceOf}."
      },
      "getApproved(uint256)": {
        "details": "See {IERC721-getApproved}."
      },
      "isApprovedForAll(address,address)": {
        "details": "See {IERC721-isApprovedForAll}."
      },
      "name()": {
        "details": "See {IERC721Metadata-name}."
      },
      "owner()": {
        "details": "Returns the address of the current owner."
      },
      "ownerOf(uint256)": {
        "details": "See {IERC721-ownerOf}."
      },
      "renounceOwnership()": {
        "details": "Leaves the contract without owner. It will not be possible to call `onlyOwner` functions anymore. Can only be called by the current owner. NOTE: Renouncing ownership will leave the contract without an owner, thereby removing any functionality that is only available to the owner."
      },
      "safeTransferFrom(address,address,uint256)": {
        "details": "See {IERC721-safeTransferFrom}."
      },
      "safeTransferFrom(address,address,uint256,bytes)": {
        "details": "See {IERC721-safeTransferFrom}."
      },
      "setApprovalForAll(address,bool)": {
        "details": "See {IERC721-setApprovalForAll}."
      },
      "supportsInterface(bytes4)": {
        "details": "See {IERC165-supportsInterface}."
      },
      "symbol()": {
        "details": "See {IERC721Metadata-symbol}."
      },
      "tokenURI(uint256)": {
        "details": "See {IERC721Metadata-tokenURI}."
      },
      "transferFrom(address,address,uint256)": {
        "details": "See {IERC721-transferFrom}."
      },
      "transferOwnership(address)": {
        "details": "Transfers ownership of the contract to a new account (`newOwner`). Can only be called by the current owner."
      }
    },
    "version": 1
  },
  "userdoc": {
    "kind": "user",
    "methods": {
      "claimHealthCheck(uint256)": {
        "notice": "Claim health check off-chain      - Book health check      - Pay fee off-chain      - System confirm to blockchain (owner call this function)  Claim link  www.vajiraHealthCheckOrSomething.co.th"
      }
    },
    "version": 1
  },
  "storageLayout": {
    "storage": [
      {
        "astId": 178,
        "contract": "contracts/Vajira110.sol:Vajira110",
        "label": "_name",
        "offset": 0,
        "slot": "0",
        "type": "t_string_storage"
      },
      {
        "astId": 180,
        "contract": "contracts/Vajira110.sol:Vajira110",
        "label": "_symbol",
        "offset": 0,
        "slot": "1",
        "type": "t_string_storage"
      },
      {
        "astId": 184,
        "contract": "contracts/Vajira110.sol:Vajira110",
        "label": "_owners",
        "offset": 0,
        "slot": "2",
        "type": "t_mapping(t_uint256,t_address)"
      },
      {
        "astId": 188,
        "contract": "contracts/Vajira110.sol:Vajira110",
        "label": "_balances",
        "offset": 0,
        "slot": "3",
        "type": "t_mapping(t_address,t_uint256)"
      },
      {
        "astId": 192,
        "contract": "contracts/Vajira110.sol:Vajira110",
        "label": "_tokenApprovals",
        "offset": 0,
        "slot": "4",
        "type": "t_mapping(t_uint256,t_address)"
      },
      {
        "astId": 198,
        "contract": "contracts/Vajira110.sol:Vajira110",
        "label": "_operatorApprovals",
        "offset": 0,
        "slot": "5",
        "type": "t_mapping(t_address,t_mapping(t_address,t_bool))"
      },
      {
        "astId": 1166,
        "contract": "contracts/Vajira110.sol:Vajira110",
        "label": "_tokenURIs",
        "offset": 0,
        "slot": "6",
        "type": "t_mapping(t_uint256,t_string_storage)"
      },
      {
        "astId": 123,
        "contract": "contracts/Vajira110.sol:Vajira110",
        "label": "_status",
        "offset": 0,
        "slot": "7",
        "type": "t_uint256"
      },
      {
        "astId": 7,
        "contract": "contracts/Vajira110.sol:Vajira110",
        "label": "_owner",
        "offset": 0,
        "slot": "8",
        "type": "t_address"
      },
      {
        "astId": 1986,
        "contract": "contracts/Vajira110.sol:Vajira110",
        "label": "_tokenIds",
        "offset": 0,
        "slot": "9",
        "type": "t_struct(Counter)1628_storage"
      },
      {
        "astId": 1988,
        "contract": "contracts/Vajira110.sol:Vajira110",
        "label": "i_baseTokenURI",
        "offset": 0,
        "slot": "10",
        "type": "t_string_storage"
      },
      {
        "astId": 2002,
        "contract": "contracts/Vajira110.sol:Vajira110",
        "label": "claimedHealthCheck",
        "offset": 0,
        "slot": "11",
        "type": "t_mapping(t_uint256,t_bool)"
      }
    ],
    "types": {
      "t_address": {
        "encoding": "inplace",
        "label": "address",
        "numberOfBytes": "20"
      },
      "t_bool": {
        "encoding": "inplace",
        "label": "bool",
        "numberOfBytes": "1"
      },
      "t_mapping(t_address,t_bool)": {
        "encoding": "mapping",
        "key": "t_address",
        "label": "mapping(address => bool)",
        "numberOfBytes": "32",
        "value": "t_bool"
      },
      "t_mapping(t_address,t_mapping(t_address,t_bool))": {
        "encoding": "mapping",
        "key": "t_address",
        "label": "mapping(address => mapping(address => bool))",
        "numberOfBytes": "32",
        "value": "t_mapping(t_address,t_bool)"
      },
      "t_mapping(t_address,t_uint256)": {
        "encoding": "mapping",
        "key": "t_address",
        "label": "mapping(address => uint256)",
        "numberOfBytes": "32",
        "value": "t_uint256"
      },
      "t_mapping(t_uint256,t_address)": {
        "encoding": "mapping",
        "key": "t_uint256",
        "label": "mapping(uint256 => address)",
        "numberOfBytes": "32",
        "value": "t_address"
      },
      "t_mapping(t_uint256,t_bool)": {
        "encoding": "mapping",
        "key": "t_uint256",
        "label": "mapping(uint256 => bool)",
        "numberOfBytes": "32",
        "value": "t_bool"
      },
      "t_mapping(t_uint256,t_string_storage)": {
        "encoding": "mapping",
        "key": "t_uint256",
        "label": "mapping(uint256 => string)",
        "numberOfBytes": "32",
        "value": "t_string_storage"
      },
      "t_string_storage": {
        "encoding": "bytes",
        "label": "string",
        "numberOfBytes": "32"
      },
      "t_struct(Counter)1628_storage": {
        "encoding": "inplace",
        "label": "struct Counters.Counter",
        "members": [
          {
            "astId": 1627,
            "contract": "contracts/Vajira110.sol:Vajira110",
            "label": "_value",
            "offset": 0,
            "slot": "0",
            "type": "t_uint256"
          }
        ],
        "numberOfBytes": "32"
      },
      "t_uint256": {
        "encoding": "inplace",
        "label": "uint256",
        "numberOfBytes": "32"
      }
    }
  }
}